:100000000C9450260C9481260C9481260C94812605
:100010000C9481260C9481260C9481260C948126C4
:100020000C9481260C9481260C9481260C948126B4
:100030000C9481260C94798A0C9481260C94812648
:100040000C9481260C94CA810C9481260C948126F0
:100050000C9481260C9481260C940C800C94867C44
:100060000C9481260C948CA70C9481260C948126E8
:100070000C9481260C9481260C9481260C94812664
:100080000C9481260C9481260C9481260C94812654
:100090000C9481260C9481260C9481260C94207E4D
:1000A0000C9481260C9481260C9481260C94812634
:1000B0000C9481260C9481260C9481260C94812624
:1000C0000C9481260C9481260C9481260C94812614
:1000D0000C9481260C9481260C9481260C94812604
:1000E0000C948126CD79D079BF79C379C979077A03
:1000F000D479D879DE79E279E679EC79F079F47916
:10010000077AFA79FE79027A7D7B827B877B917B05
:100110009B7B147CA57BAD7BB57BBF7BC97BD37BF5
:10012000E27BEC7B147CF67B007C0A7C2D803B80A0
:10013000578065807F808D80A780AA804FBFBFBD1C
:10014000F5BD8BBFF5BDF5BDF5BDF5BDF5BDF5BD87
:10015000F5BDF5BDF5BDF5BDF5BDF5BDF5BDF5BD0F
:10016000F5BDF5BDF5BDF5BDF5BDF5BDF5BDF5BDFF
:10017000F5BDF5BDF5BDF5BD85BFF5BDF5BDF5BD5D
:10018000F5BDF5BDF5BDF5BDF5BD5FBFF5BDF5BD73
:10019000F5BDF5BDF5BDF5BDF5BDF5BDF5BDF5BDCF
:1001A000A8BFF2BD084AD73B3BCE016E84BCBFFD61
:1001B000C12F3D6C74319ABD56833DDA3D00C77F37
:1001C00011BED9E4BB4C3E916BAAAABE00000080D0
:1001D0003F05A84CCDB2D44EB93836A9020C50B95F
:1001E000918688083CA6AAAA2ABE000000803F008B
:1001F0000D948A060D9469064E414E494E49545954
:10020000494E46CDCCCC3D0AD7233C17B7D13877E1
:10021000CC2B329595E6241FB14F0A0000204100F7
:1002200000C84200401C4620BCBE4CCA1B0E5AAE41
:10023000C59D742F005369207374612073637269C4
:1002400076656E646F20696C2062797465207375C1
:1002500020534420004E6F6E207369207374612018
:100260007363726976656E646F2073752053440002
:100270002E0044656C6574696F6E206661696C65FB
:10028000642C2046696C653A200046696C652064E0
:10029000656C657465643A002E006F70656E20664B
:1002A00061696C65642C2046696C653A20007001B8
:1002B0002C0190012701B0012201C0011D01F001B4
:1002C00018011002130130020E01600209019002B0
:1002D0000401C002FF000003FA004003F5008003A0
:1002E000F000D003EB002004E6007004E100E0041D
:1002F000DC004005D700C005D2004006CD00D00686
:10030000C8008007C3003008BE00F008B900C0096B
:10031000B400B00AAF00B00BAA00D00CA500000ECC
:10032000A000500F9B00C0109600501291000014C6
:100330008C00C0158700B0178200B0197D00D01B5B
:100340007800001E730040206E0090226900F024A7
:10035000640040275F0090295A00E02B5500102EC2
:10036000500020304B0010324600E0334100903501
:100370003C001037370070383200A0392D00B03AF9
:100380002800A03B2300603C1E00103D1900903D5A
:100390001400103E0F00703E0A00C03E0500003FF2
:1003A0000000504944204175746F74756E65206675
:1003B000696E69736865642120507574207468657E
:1003C000204B702C204B6920616E64204B642063AD
:1003D0006F6E7374616E747320696E746F20436FF7
:1003E0006E66696775726174696F6E2E6800504938
:1003F00044204175746F74756E65206661696C6523
:1004000064212074696D656F75740020403A006F37
:100410006B20543A006F6B20423A0050494420410F
:1004200075746F74756E65206661696C65642120F2
:1004300054656D706572617475726520746F6F209C
:100440006869676800204B643A2000204B693A20B5
:1004500000204B703A200020436C61736963205088
:10046000494420002054753A2000204B753A200062
:10047000206D61783A2000206D696E3A200020647A
:100480003A200020626961733A2000205A00205906
:100490000020204D323036205800486F6D65206FA7
:1004A000666673657420286D6D293A00204500202A
:1004B0005A0020580020420020540020204D3230A5
:1004C00035205300416476616E6365642076617205
:1004D0006961626C65733A20533D4D696E206665B3
:1004E00065647261746520286D6D2F73292C20540A
:1004F0003D4D696E2074726176656C206665656439
:100500007261746520286D6D2F73292C20423D6D1A
:10051000696E696D756D207365676D656E742074A5
:10052000696D6520286D73292C20583D6D617869AF
:100530006D756D205859206A65726B20286D6D2F7E
:1005400073292C20205A3D6D6178696D756D205A94
:10055000206A65726B20286D6D2F73292C20204531
:100560003D6D6178696D756D2045206A65726B20FF
:10057000286D6D2F73290020540020204D32303417
:10058000205300416363656C65726174696F6E3AF4
:1005900020533D616363656C65726174696F6E2C95
:1005A00020543D7265747261637420616363656C8D
:1005B00065726174696F6E00204500205A002059F1
:1005C0000020204D3230312058004D6178696D7522
:1005D0006D20416363656C65726174696F6E20287C
:1005E0006D6D2F7332293A00204500205A002059A2
:1005F0000020204D3230332058004D6178696D75F0
:100600006D2066656564726174657320286D6D2F59
:1006100073293A00204500205A0020590020204D1F
:1006200039322058005374657073207065722075DC
:100630006E69743A002200436F6D616E646F2073BF
:10064000636F6E6F73636975746F3A202200436144
:100650006D6269612066696C616D656E746F006CB6
:10066000636420636F6E74726173742076616C755D
:10067000653A20007A5F6D61783A20007A5F6D6993
:100680006E3A2000795F6D61783A2000795F6D697C
:100690006E3A2000785F6D61783A2000785F6D696E
:1006A0006E3A20005A3A00593A002043616C636F59
:1006B0006C6120583A2000453A005A3A00593A00F5
:1006C000583A004649524D574152455F4E414D45BB
:1006D0003A4D61726C696E2056313B2053707269DD
:1006E0006E7465722F6772626C206D6173687570CD
:1006F00020666F722067656E36204649524D57411D
:1007000052455F55524C3A6D2050524F544F434F13
:100710004C5F56455253494F4E3A312E30204D4191
:100720004348494E455F545950453A52452D43552B
:10073000542045585452554445525F434F554E54EA
:100740003A3120555549443A30303030303030302D
:100750002D303030302D303030302D303030302DA5
:100760003030303030303030303030300A005245A8
:100770002D435554204F66662E0052452D43555447
:100780002050726F6E746F005374616D70616E747F
:10079000652043616C64612E0020573A0020453A81
:1007A00000543A0052697363616C64616D656E74E4
:1007B0006F2E2E2E002042403A0020403A00202F7B
:1007C000003A00205400202F0020423A00202F0041
:1007D0006F6B20543A002569206D696E2C202569C5
:1007E000207365630046696E65204C6973746120EF
:1007F00046696C6500496E697A696F204C6973744B
:10080000612046696C65004E657373756E204D6F8F
:1008100076696D656E746F2E0052697072656E64D4
:1008200069205374616D706100417474656E646910
:10083000205574656E74652E2E2E006D6F646F3AB0
:10084000204D6F646F207461676C696F206C6173F9
:100850006572006D6F646F3A204D6F646F20434E78
:1008600043006D6F646F3A204D6F646F2073746145
:100870006D70616E746520334400536F7370656EE4
:1008800073696F6E652E2E2E004D38342058205916
:10089000205A2045004E6F2053442043617264006B
:1008A00053442043617264204D656E75004172723D
:1008B00065737461205374616D7061005269707268
:1008C000656E6469205374616D7061005061757369
:1008D0006100436F6E74726F6C6C6F00436F6E7467
:1008E000726F6C6C6F206C61736572005072657012
:1008F0006172610047756172646100436F6E74726A
:100900006F6C6C6F004D6F646F004775617264614E
:1009100000436F6E74726F6C6C6F004D6F646F008C
:1009200041646174746100477561726461005900CB
:10093000B02000B02000B02000B020002D2D3A2DB6
:100940002D0000000000000000000000000000007A
:100950000000000000000000000000000000000097
:1009600000003FFE0000000000000000000000004A
:1009700000005555000000000000000000000000CD
:1009800000005555000000000000000000000000BD
:1009900000005555000000000000000000000000AD
:1009A000000055550000000000000000000000009D
:1009B000000055550000000000000000000000008D
:1009C000000055550000000000000000000000007D
:1009D000000055550000000000000000000000006D
:1009E000000055550000000000000000000000005D
:1009F000000055550000000000000000000000004D
:100A000000003FFE000000000000000000000000A9
:100A100000003FFE00000000000000000000000099
:100A200000003FFE00000000000000000000000089
:100A300000001FFC0000000000000000000000009B
:100A400000000FF80000000000000000000000009F
:100A5000000007F00000000000000000000000009F
:100A6000000003E0000000000000000000000000A3
:100A7000000001C0000000000000000000000000B5
:100A800000000080000000000000000000000000E6
:100A900000000080000000000000000000000000D6
:100AA00000000080000000000000000000000000C6
:100AB000000008A800000000000000000000000086
:100AC0000000049000000000000000000000000092
:100AD00000001AA00000000000000000000000005C
:100AE000000004EA00000000000000000000000018
:100AF0000000008000000000000000000000000076
:100B000000000000000000000000000000000000E5
:100B100000000000000000000000000000000000D5
:100B200000003FFE00000000000000000000000088
:100B3000000055550000000000000000000000000B
:100B400000005555000000000000000000000000FB
:100B500000005555000000000000000000000000EB
:100B600000005555000000000000000000000000DB
:100B700000005555000000000000000000000000CB
:100B800000005555000000000000000000000000BB
:100B900000005555000000000000000000000000AB
:100BA000000055550000000000000000000000009B
:100BB000000055550000000000000000000000008B
:100BC00000003FFE000000000000000000000000E8
:100BD00000003FFE000000000000000000000000D8
:100BE00000003FFE000000000000000000000000C8
:100BF00000001FFC000000000000000000000000DA
:100C000000000FF8000000000000000000000000DD
:100C1000000007F0000000000000000000000000DD
:100C2000000003E0000000000000000000000000E1
:100C3000000001C0000000000000000000000000F3
:100C40000000008000000000000000000000000024
:100C50000000008000000000000000000000000014
:100C60000000008000000000000000000000000004
:100C700000000080000000000000000000000000F4
:100C800000000080000000000000000000000000E4
:100C900000000080000000000000000000000000D4
:100CA00000000080000000000000000000000000C4
:100CB00000000080000000000000000000000000B4
:100CC0000000000000000000000000000000000024
:100CD0000000000000000000000000000000000014
:100CE00000003FFE000000000000000000000000C7
:100CF000000055550000000000000000000000004A
:100D00000000555500000000000000000000000039
:100D10000000555500000000000000000000000029
:100D20000000555500000000000000000000000019
:100D30000000555500000000000000000000000009
:100D400000005555000000000000000000000000F9
:100D500000005555000000000000000000000000E9
:100D600000005555000000000000000000000000D9
:100D700000005555000000000000000000000000C9
:100D800000003FFE00000000000000000000000026
:100D900000003FFE00000000000000000000000016
:100DA00000003FFE00000000000000000000000006
:100DB00000001FFC00000000000000000000000018
:100DC00000000FF80000000000000000000000001C
:100DD000000007F00000000000000000000000001C
:100DE000000003E000000000000000000000000020
:100DF000000001C000000000000000000000000032
:100E00000000008000000000000000000000000062
:100E100000000000000000000000000000000000D2
:100E200000000000000000000000000000000000C2
:100E300000000000000000000000000000000000B2
:100E400000000000000000000000000000000000A2
:100E50000000000000000000000000000000000092
:100E60000000000000000000000000000000000082
:100E70000000000000000000000000000000000072
:100E800000000000000000000000000000007FFFE4
:100E9000E00000000000000000000000007000E022
:100EA00000000000000000000000000061F8600089
:100EB000000000000000000000000041F8200000D9
:100EC0000000000000000000000040F020000000D2
:100ED0000000000000000000004060200000000052
:100EE00000000000000000005801A07F80003FC00B
:100EF000003FC0004104005C63A0FBC00079E0003B
:100F000079E0002082005EF7A0F3C00076E0007672
:100F1000E0002082005EF7A0EBC0007EE0007EE0F3
:100F2000004104005C63A07B80003DC00039C0002C
:100F30008208005801A07B80003BC0003EC0010435
:100F40001000406020FBC00077E00076E001041054
:100F50000040F020FBC00070E00079E00082080053
:100F600041F820FFC0007FE0007FE0004104006105
:100F7000F8603F00001F80001F800000000070002C
:100F8000E01E00000F00000F0001FFFF807FFFE068
:100F90000C0000060000060001FFFF8000000000BA
:100FA00000000000000000000000007FFFE00000E3
:100FB000000000000000000000007000E0000000E1
:100FC000000000000000000000630C600000000052
:100FD0000000000000000000470E2000000000009C
:100FE000000000000000004F0F2000000000000083
:100FF0000000000000005F0FA000000000000000E3
:1010000000000000005E07A07F80003FC0003FC0DE
:1010100000410400406020FBC00079E00079E0005E
:1010200020820040F020F3C00076E00076E000204F
:10103000820040F020EBC0007EE0007EE000410432
:10104000004060207B80003DC00039C00082080065
:101050005E07A07B80003BC0003EC0010410005F23
:101060000FA0FBC00077E00076E0010410004F0FF6
:1010700020FBC00070E00079E000820800470E20ED
:10108000FFC0007FE0007FE000410400630C603F90
:1010900000001F80001F80000000007000E01E00A4
:1010A000000F00000F0001FFFF807FFFE00C000039
:1010B000060000060001FFFF800000000006090096
:1010C000FE06018902FE20FFFE07FE06FE0000006C
:1010D000060007010606060200808080800080036B
:1010E0000303060103A0A0A00507070600FF505058
:1010F000F850F850500509090600FE2070A8A070AD
:1011000028A870200608080600FF40A848102048BC
:1011100054080507070600FF6090906098906801EA
:1011200003030602038080800207070602FF408057
:1011300080808080400207070602FF8040404040D8
:1011400040800505050600008850F8508805050513
:101150000600002020F820200204040602FEC04001
:101160004080050101060002F8020202060200C0EA
:10117000C004060606010010102040808004060608
:101180000601006090909090600306060601004002
:10119000C0404040E0040606060100609010204078
:1011A000F0040606060100F020601010E0050606B7
:1011B00006000010305090F810040606060100F0FA
:1011C00080E01010E00406060601006080E09090C8
:1011D00060040606060100F01010204040040606D8
:1011E00006010060906090906004060606010060B1
:1011F0009090701060020505060200C0C000C0C0DB
:101200000207070602FEC0C000C040408005050579
:101210000600001860806018050303060001F8004E
:10122000F8050505060000C0300830C004070706B1
:101230000100609010604000400506060600007046
:1012400090A8B08070050606060000205088F88837
:1012500088050606060000F088F08888F004060677
:10126000060100609080809060040606060100E0A0
:1012700090909090E0040606060100F080E08080E7
:10128000F0040606060100F080E080808004060677
:10129000060100609080B090600406060601009090
:1012A00090F0909090030606060100E04040404018
:1012B000E0050606060000381010109060040606CF
:1012C00006010090A0C0A0909004060606010080D0
:1012D00080808080F005060606000088D8A8A888CF
:1012E0008804060606010090D0B09090900506068E
:1012F000060000708888888870040606060100E0F1
:101300009090E080800407070601FF609090D0B0C5
:101310006010040606060100E09090E0909004063C
:101320000606010060904020906005060606000059
:10133000F8202020202004060606010090909090BE
:101340009060040606060100909090F0606005062B
:10135000060600008888A8A8D888050606060000AA
:1013600088502020508805060606000088885020F6
:101370002020040606060100F010204080F003063D
:1013800006060100E080808080E004060606010079
:10139000808040201010030606060100E020202077
:1013A00020E0050303060003205088050101060024
:1013B000FEF8020202060204804004040406010052
:1013C000709090700406060601008080E09090E026
:1013D0000404040601007080807004060606010003
:1013E00010107090907004040406010060B0C0708A
:1013F000040606060100205040E0404004060606B0
:1014000001FE609090701060040606060100808066
:10141000E09090900306060601004000C04040E0C6
:101420000308080601FE200060202020A0400406DA
:10143000060601008080A0C0A090030606060100F9
:10144000C040404040E0050404060000D0A8A88841
:10145000040404060100E0909090040404060100D6
:10146000609090600406060601FEE09090E08080A7
:101470000406060601FE7090907010100404040625
:101480000100A0D0808004040406010070C030E098
:101490000406060601004040E04050200404040613
:1014A0000100909090700404040601009090606028
:1014B00005040406000088A8A850040404060100DE
:1014C000906060900406060601FE90909070906017
:1014D000040404060100F02040F0030707060100A1
:1014E000204040804040200107070602FF808080A6
:1014F0008080808003070706010080404020404034
:101500008004020206010350A0FFFFFFFFFFFFFF60
:10151000FFFFFFFFFFFFFFFFFFFFFFFFFFFFFFFFDB
:10152000FFFFFFFFFFFFFFFFFFFF000000060007B8
:101530000106060602008000808080800406060600
:1015400001FF2070A0A070200507070600FF3048AB
:1015500040F04040F8050505060000A8508850A856
:101560000506060600008850F820F8200107070647
:1015700002FF808080008080800407070601FF70E2
:101580008060906010E0030101060105A0060707D6
:10159000060000788494A49484780305050601016C
:1015A00060A06000E00505050600002850A0502856
:1015B000040303060100F01010040101060102F00B
:1015C0000607070600007884B4A4A4847804010107
:1015D000060105F004030306010260906005070799
:1015E0000600FF2020F8202000F803050506010171
:1015F00040A02040E0030505060101C0204020C0B6
:1016000002020206020440800405050601FF9090D4
:10161000B0D08005060606000078E8E868282801B2
:101620000101060202800202020602FE408003055A
:101630000506010140C04040E003050506010140E8
:10164000A04000E0050505060000A0502850A005B8
:1016500008080600FF40C0405070307810050808A8
:101660000600FF40C0405068081038050808060012
:10167000FFC0204030F0307810040707060100203A
:101680000020608090600507070600004020205081
:101690007088880507070600001020205070888891
:1016A00005070706000020502050708888050707AE
:1016B00006000028502050708888050707060000A3
:1016C0005000205070888805070706000020502031
:1016D0005070888805060606000078A0F0A0A0B823
:1016E0000408080601FE6090808090602040040796
:1016F000070601004020F080E080F00407070601A3
:10170000002040F080E080F0040707060100205030
:10171000F080E080F00407070601005000F080E050
:1017200080F00307070601008040E0404040E003EE
:1017300007070601002040E0404040E0030707069D
:10174000010040A0E0404040E0030707060100A080
:1017500000E0404040E00506060600007048E8480A
:10176000487004070706010050A090D0B090900484
:10177000070706010040206090909060040707066C
:10178000010020406090909060040707060100204F
:1017900050609090906004070706010050A0609090
:1017A00090906004070706010050006090909060E0
:1017B0000505050600008850205088040808060129
:1017C000FF1070B0B0D0D0E08004070706010040E1
:1017D00020909090906004070706010020409090B0
:1017E0009090600407070601002050909090906050
:1017F00004070706010050009090909060050707CD
:101800000600001020885020202004060606010053
:1018100080E09090E0800406060601006090A0A0A1
:1018200090A004070706010040200070909070040B
:10183000070706010020400070909070040707061B
:1018400001002050007090907004070706010050BE
:10185000A000709090700406060601005000709081
:1018600090700407070601002050207090907005CA
:10187000040406000070A8B0780406060601FE7095
:10188000808070204004070706010040200060B0FF
:10189000C07004070706010020400060B0C070045B
:1018A000070706010020500060B0C070040606065D
:1018B0000100500060B0C0700307070601008040BF
:1018C00000C04040E0030707060100204000C04080
:1018D00040E003070706010040A000C04040E003CD
:1018E0000606060100A000C04040E004070706010C
:1018F000003060107090906004070706010050A04F
:1019000000E09090900407070601004020006090DE
:10191000906004070706010020400060909060047A
:10192000070706010020500060909060040707063A
:10193000010050A00060909060040606060100506F
:1019400000609090600505050600002000F800206A
:1019500004040406010070B0D0E00407070601008B
:10196000402000909090700407070601002040007E
:10197000909090700407070601002050009090900E
:10198000700406060601005000909090700409094A
:101990000601FE20400090909070906004080806B8
:1019A00001FE8080E09090E080800408080601FE3F
:1019B00050009090907090605A70617373692F6DB1
:1019C0006D005A70617373692F6D6D00597061738A
:1019D00073692F6D6D005970617373692F6D6D00A0
:1019E0005870617373692F6D6D00587061737369FE
:1019F0002F6D6D00416D61787A00416D61787A00DC
:101A0000416D61787900416D61787900416D61784F
:101A10007800416D617878005654726176206D6966
:101A20006E005654726176206D696E00566D696E57
:101A300000566D696E00566D61787A00566D61785A
:101A40007A00566D61787900566D61787900566D2F
:101A500061787800566D61787800567A2D6A6572E3
:101A60006B00567A2D6A65726B005678792D6A651F
:101A7000726B005678792D6A65726B0041636365FD
:101A80006C00416363656C00436F6E74726F6C6CC5
:101A90006F0020536F6674776172652052657365BD
:101AA0007400205761746368646F672052657365C2
:101AB00074002042726F776E206F757420526573C8
:101AC0006574002052657365742045737465726E89
:101AD0006F004772626C2076312E31004772626C63
:101AE0002076312E31205B27242720666F722068F4
:101AF000656C705D004D383420582059205A2045BF
:101B0000006563686F3A00256920686F75727320FD
:101B10002569206D696E757465730046696C652072
:101B20007374616D7061746F00415252455354413A
:101B3000544F2E20005374616D70616E7465206681
:101B400065726D61746120612063617573612064E9
:101B500069206572726F72692E205269736F6C769C
:101B600069206C276572726F7265206520757361DC
:101B7000204D393939207065722072697061727434
:101B8000697265212E202852657365742074656D15
:101B900070657261747572612E20496D706F737417
:101BA000616C61207072696D612064692072697076
:101BB00061727469726529006F6B004E657373758D
:101BC0006E204E756D65726F206469204C696E657C
:101BD0006120636F6E20436865636B73756D2C20A5
:101BE000556C74696D61204C696E65613A20004ED8
:101BF000657373756E20436865636B73756D2063E1
:101C00006F6E204E756D65726F206469204C696E31
:101C100065612C20556C74696D61204C696E65613D
:101C20003A2000636865636B73756D206E6F6E207C
:101C3000636F72726973706F6E64656E74652C2069
:101C4000556C74696D61204C696E65613A2000497C
:101C50006C204E756D65726F2064656C6C61204CF4
:101C6000696E6561206E6F6E20636F72726973704A
:101C70006F6E646520616C204E756D65726F2064B7
:101C8000656C6C27556C74696D61204C696E65617B
:101C90002B312C20556C74696D61204C696E656127
:101CA0003A20004572726F723A004D313130006F48
:101CB0006B00244A3D006F6B00244800242400453B
:101CC00072726F7265206E656C6C612073637269ED
:101CD00074747572612073752066696C6500526159
:101CE000676769756E746F20656E6473746F703AA0
:101CF000205A00205A3A005261676769756E746F06
:101D000020656E6473746F703A20590020593A0050
:101D10005261676769756E746F20656E6473746F66
:101D2000703A20580020583A005261676769756E12
:101D3000746F20656E6473746F703A200065636819
:101D40006F3A0046696C652053616C7661746F2E42
:101D5000006F6B004D3239004D756F76692041730D
:101D60007365004D38300053776974636820506F95
:101D7000776572204F6E004D383100537769746378
:101D80006820506F776572204F66660047393220B1
:101D90005830205930205A3000496D706F7374618B
:101DA000204F726967696E65004733310050617278
:101DB0006368656767696F00473238004175746F03
:101DC00020486F6D65004D38340044697361626965
:101DD0006C697461204D6F746F7269004D656E752A
:101DE000207072696E636970616C6500000021008B
:101DF000240027002A002D003000330001010000DC
:101E0000040107010A0100002200250028002B0020
:101E10002E003100340002010000050108010B0111
:101E2000000020002300260029002C002F00320093
:101E3000000100000301060109010505050507056C
:101E400008080808020202020A0A08080404040436
:101E50000101010101010101030303030303030362
:101E6000040707070C0C0C0C0C0C0C0C02020202F1
:101E700006060606060606060B0B0B0B0B0B0B0BDA
:101E8000010210202008081020401020408002018C
:101E90000201080402010102040810204080804071
:101EA0002010080402018004020180402010080470
:101EB000020108040201010204081020408001020E
:101EC00004081020408000000A0B02090C0D0E08C7
:101ED00007030401000000000000000000000000F3
:101EE00000000000000000000000000000000000F2
:101EF00000001211100000000000000000000000AF
:101F000000000000000000000000000024F4D430B5
:101F100050C38E20C2A24017828B7011127A910D8D
:101F2000816CD90AA861E108C75866076151430668
:101F30001E4B5D05C145A7041A411104093D9803D4
:101F4000713931034036DB0265339102D4305402DB
:101F5000802E1D02632CEE01752AC501B028A00158
:101F6000102781018F2564012B244B01E0223401CD
:101F7000AC211F018D200D01801FFC00841EED008F
:101F8000971DDF00B81CD200E61BC600201BBC005A
:101F9000641AB200B219A8000A19A0006A189900C0
:101FA000D117910040178B00B516840031167E00C2
:101FB000B31579003A157300C7146F0058146A00FE
:101FC000EE1366008813630025135E00C7125B00E2
:101FD0006C12570015125400C111510070114F00BE
:101FE00021114B00D61049008D10470046104400C7
:101FF00002104200C00F4000800F3E00420F3C0024
:10200000060F3B00CB0E3800930E37005C0E3500F8
:10201000270E3400F30D3200C10D3100900D300059
:10202000600D2E00320D2D00050D2C00D90C2B005B
:10203000AE0C2900850C29005C0C2700350C27000C
:102040000E0C2600E80B2400C40B2400A00B230078
:102050007D0B23005A0B2100390B2100180B2000A7
:10206000F80A1F00D90A1E00BB0A1E009D0A1D00A7
:10207000800A1D00630A1C00470A1B002C0A1B0073
:10208000110A1A00F7091A00DD091900C40919001C
:10209000AB091900920917007B09180063091700A2
:1020A0004C09160036091600200916000A09150009
:1020B000F5081500E0081400CC081400B808140056
:1020C000A4081400900813007D0812006B08130088
:1020D00058081200460812003408110023081100A5
:1020E0001208110001081100F0071000E0071000AD
:1020F000D0071000C0071000B0070F00A1071000A4
:1021000091070E0083070F0074070F0065070E008C
:1021100057070E0049070E003B070D002E070E0063
:1021200020070D0013070D0006070D00F9060C002F
:10213000ED060D00E0060C00D4060C00C8060C00ED
:10214000BC060C00B0060C00A4060B0099060C009F
:102150008D060B0082060B0077060B006C060B0049
:1021600061060A0057060B004C060A0042060A00E8
:1021700038060A002E060A0024060A001A060A007B
:102180001006090007060A00FD050900F40509000C
:10219000EB050900E2050900D9050900D005090091
:1021A000C7050900BE050900B5050800AD05080012
:1021B000A50509009C050800940508008C05080089
:1021C000840508007C050800740508006C050700FC
:1021D000650508005D050700560508004E05070067
:1021E00047050700400508003805070031050700CE
:1021F0002A050700230507001C0506001605070031
:102200000F0507000805060002050700FB0406008D
:10221000F5040700EE040600E8040600E2040700E7
:10222000DB040600D5040600CF040600C90406003E
:10223000C3040600BD040600B7040600B10405008F
:10224000AC040600A6040600A00405009B040600DA
:1022500095040500900406008A0405008504050025
:10226000800406007A04050075040500700405006A
:102270006B04050066040500610405005C040500AC
:1022800057040500520405004D04050048040500EC
:10229000430405003E0404003A040500350405002B
:1022A000300404002C040500270404002304050066
:1022B0001E0404001A04040016040500110404009E
:1022C0000D040400090405000404040000040400D3
:1022D000FC030400F8030400F4030400F00304000A
:1022E000EC030400E8030400E4030400E00304003A
:1022F000DC030400D8030400D4030400D00304006A
:10230000CC030400C8030300C503030024F404D96C
:10231000201BC40C5C0E9804C4095F0265077101A0
:10232000F405F900FB04B30048048700C103690009
:102330005803550003034500BE023A0084023100F1
:1023400053022A002902250004022000E4011C0097
:10235000C8011900AF01170098011400840113008F
:10236000710110006101100051010E0043010D00C8
:1023700036010B002B010B0020010B001501090099
:102380000C01090003010800FB000800F30008002D
:10239000EB000700E4000600DE000600D80006009F
:1023A000D2000600CC000500C7000500C2000500F1
:1023B000BD000400B9000400B5000400B100040031
:1023C000AD000400A9000400A5000300A200030062
:1023D0009F0004009B00030098000300950002008A
:1023E00093000300900003008D0002008B000300A7
:1023F00088000200860002008400030081000200C1
:102400007F0002007D0002007B00020079000200D4
:1024100077000100760002007400020072000100E3
:10242000710002006F0002006D0001006C000200EC
:102430006A000100690002006700010066000100F7
:1024400065000100640002006200010061000100FB
:10245000600001005F0002005D0001005C000100FF
:102460005B0001005A000100590001005800010002
:102470005700010056000100550001005400010002
:102480005300000053000100520001005100010000
:10249000500001004F0001004E0000004E000100FE
:1024A0004D0001004C0001004B0000004B000100FA
:1024B0004A000100490001004800000048000100F6
:1024C00047000100460000004600010045000000F2
:1024D00045000100440001004300000043000100EA
:1024E00042000000420001004100000041000100E4
:1024F000400001003F0000003F0001003E000000DE
:102500003E0001003D0000003D0001003C000000D5
:102510003C0000003C0001003B0000003B000100CB
:102520003A0000003A0001003900000039000100C3
:1025300038000000380000003800010037000000BB
:1025400037000100360000003600000036000100B0
:1025500035000000350000003500010034000000A7
:10256000340000003400010033000000330000009C
:102570003300010032000000320000003200010090
:102580003100000031000000310001003000000087
:1025900030000000300001002F0000002F0000007C
:1025A0002F0000002F0001002E0000002E00000070
:1025B0002E0001002D0000002D0000002D00000065
:1025C0002D0001002C0000002C0000002C00000059
:1025D0002C0001002B0000002B0000002B0000004D
:1025E0002B0001002A0000002A0000002A00000041
:1025F0002A00010029000000290000002900000035
:102600002900000029000100280000002800000027
:10261000280000002800000028000100270000001A
:10262000270000002700000027000000270001000D
:102630002600000026000000260000002600000002
:1026400026000100250000002500000025000000F4
:1026500025000000250000002500010024000000E6
:1026600024000000240000002400000024000100D9
:1026700023000000230000002300000023000000CE
:1026800023000000230000002300010022000000BE
:1026900022000000220000002200000022000000B2
:1026A00022000100210000002100000021000000A4
:1026B0002100000021000000210000002100010095
:1026C000200000002000000020000000200000008A
:1026D0002000000020000000200000002000010079
:1026E0001F0000001F0000001F0000001F0000006E
:1026F0001F0000001F0000001F0001001E0000005E
:102700001E0000001E0000001E0000004572723A0C
:10271000204D415854454D50003A2045787472750B
:10272000646572207377697463686564206F666698
:102730002E204D415854454D50207472696767658D
:102740007265642021004572723A204D494E54450D
:102750004D50003A20457874727564657220737725
:10276000697463686564206F66662E204D494E5417
:10277000454D502074726967676572656420210059
:102780004572723A204D415854454D5020424544BF
:102790000054656D7065726174757265206865615D
:1027A0007465642062656420737769746368656426
:1027B000206F66662E204D415854454D502074724E
:1027C00069676765726564202121004572726F72C6
:1027D0003A000253637269747475726120737520D4
:1027E00066696C653A20002E0046616C6C69746104
:1027F000206C2761706572747572612064656C204D
:1028000046696C653A20002E0046616C6C69746103
:10281000206C2761706572747572612064656C202C
:1028200046696C653A200046696C652073656C6585
:102830007A696F6E61746F002044696D656E7369AB
:102840006F6E653A200046696C6520617065727430
:102850006F3A20002E0046616C6C697461206C2711
:1028600061706572747572612064656C2046696C74
:10287000653A20004E6F772066726573682066693E
:102880006C653A20004E6F7720646F696E67206632
:10289000696C653A20002220706F730022207061FD
:1028A00072656E743A2200535542524F5554494E48
:1028B000452043414C4C207461726765743A220094
:1028C000747279696E6720746F2063616C6C207319
:1028D00075622D67636F64652066696C6573207728
:1028E00069746820746F6F206D616E79206C6576F5
:1028F000656C732E204D4158206C6576656C20699F
:10290000733A007C3C3E5E2B3D3F2F5B5D3B2C2AA7
:10291000225C0055434349534F2E20005374616D90
:1029200070616E74652043616C64612E206B696C0C
:102930006C282920636869616D6174612021210020
:1029400041525245535441544F2E20005374616DEF
:1029500070616E7465206665726D617461206120BE
:102960006361757361206469206572726F72692E8C
:10297000205269736F6C7669206C276572726F7272
:1029800065206520757361204D3939392070657275
:1029900020726970617274697265212E20285265F7
:1029A0007365742074656D70657261747572612EE3
:1029B00020496D706F7374616C61207072696D6114
:1029C00020646920726970617274697265290000FF
:1029D0000082430000344300000042000000000079
:1029E00000000000000000000000000000000000E7
:1029F0000000000000A0400000A0400000803F0058
:102A00000082430000344300000042FFFFFF220029
:102A1000656E717565696E6720220053657474690F
:102A20006E67732053746F726564004861726463EB
:102A30006F6465642044656661756C7420536574C9
:102A400074696E6773204C6F6164656400656368C8
:102A50006F3A00466F637573004D350044697361CA
:102A60007474697661206C61736572004D33205314
:102A70003000417474697661206C61736572004D39
:102A8000313100537065676E69206C617365720047
:102A90004D313020533000416363656E6469206CB2
:102AA00061736572004D656E75207072696E636941
:102AB00070616C650053616C766120696E204545DC
:102AC00050524F4D00473932205A300053657474CC
:102AD00061206F6666736574004D756F7669206658
:102AE000756F636F00473238205A00417A7A6572F9
:102AF000612061737365205A005A65726F206F669A
:102B000066736574004D656E75207072696E6369D9
:102B100070616C6500496D706F7374617A2E20640A
:102B2000656661756C7400436172696361206461FC
:102B300020454550524F4D0053616C766120696EBF
:102B400020454550524F4D004C434420636F6E74F6
:102B500072617374004D6F76696D656E746F004DB0
:102B6000656E75207072696E636970616C65004393
:102B70006F6E7472617374004D3234004D323320C5
:102B8000257300496D706F73736962696C652065A8
:102B90006E7472617265206E656C6C6120736F7407
:102BA000746F63617274656C6C613A2000F92E2E4B
:102BB000004D656E75207072696E636970616C6539
:102BC0000001050800FF060121023520FFFF07FF75
:102BD00006FF090050221656808080800080153341
:102BE00053A0A0A00257575050F850F85050025729
:102BF000572070A07028702013355580A040A02069
:102C000002475740A0A040A0A050251353808080C9
:102C100012265640808080804012265680404040D8
:102C200040800245559060F060900255552020F894
:102C30002020113353604080044151F01133534040
:102C4000E04002465610102040808012365640A0C8
:102C5000A0A0A04012365640C0404040E002465678
:102C60006090106080F0024656F020601090600284
:102C700046562060A0F02020024656F080E01090DA
:102C8000600246566080E0909060024656F0102048
:102C90002040400246566090609090600246566028
:102CA0009090701060122555C0C000C0C0113656FB
:102CB00060600060408012365620408080402003D3
:102CC0004353F000F01236568040202040801236E8
:102CD0005640A020400040015858304898A8A8907D
:102CE0004030024656609090F09090024656E09038
:102CF000E09090E0024656609080809060024656D8
:102D0000E090909090E0024656F080E08080F002E3
:102D10004656F080E0808080024656609080B090F9
:102D2000600246569090F0909090123656E04040E7
:102D30004040E002465670202020A04002465690B7
:102D4000A0C0A0A0900246568080808080F00246FD
:102D50005690F0F090909002465690D0F0B0B0901F
:102D6000024656609090909060024656E09090E047
:102D70008080014757609090D0B06010024656E0C6
:102D80009090E090900246566090402090601236FD
:102D900056E04040404040024656909090909060EF
:102DA000024656909090906060024656909090F047
:102DB000F090024656909060609090025656888837
:102DC00050202020024656F010204080F012365647
:102DD000E080808080E00246568080402010101203
:102DE0003656E020202020E016325240A00141510A
:102DF000F016225280400244547090907002465661
:102E00008080E09090E012345460808060024656EA
:102E100010107090907002445460B0C0600246562A
:102E2000205040E0404001455560907010600246DF
:102E3000568080E09090901236564000C04040E0AE
:102E40001137572000202020A04002465680809055
:102E5000E09090123656C040404040E0025454D0BA
:102E6000A8A8A8024454E090909002445460909026
:102E700060014555E090E0808001455570907010EC
:102E800010024454A0D0808012345460C020C0028C
:102E900046564040E04050200244549090907012BA
:102EA0003454A0A0A04002545488A8A8500244540E
:102EB000906060900145559090709060024454F08D
:102EC0002040F0024757304020C0204030221656A4
:102ED000808080808080024757C02040304020C0E2
:102EE00006425250A0FFFFFFFFFFFFFFFFFFFFFF63
:102EF000FFFFFFFFFFFFFFFFFFFFFFFFFFFFFFFFE2
:102F0000FFFFFFFFFFFF0900502216568000808060
:102F100080800146562070A0A070200246562050A6
:102F2000E04050A00255558870507088025656886F
:102F300050F820F82022175780808000808080027F
:102F400047577080E0907010E0173151A00256563C
:102F500070A8C8C8A87014355560A06000E003438D
:102F60005350A050123353E02020143151E0025648
:102F70005670E8D8E8D870173151E015335340A0A7
:102F80004012355540E04000E014355540A0204047
:102F9000E0143555C020C020C016225240800145A3
:102FA00055909090E08002565678E8E868282824EA
:102FB000115180112252408014355540C04040E0EC
:102FC00014355540A04000E0034353A050A00247F1
:102FD00057808080A060F0200247578080A0D010EA
:102FE000207002475780408060A0F0201236564083
:102FF000004080A04002475740206090F09090022F
:10300000475720406090F090900247576090609042
:10301000F0909002475750A06090F0909002475770
:1030200090006090F0909002475760906090F09010
:103030009002465670A0A0F0A0B001475760908063
:10304000809060400247574020F080E080F00247C7
:10305000572040F080E080F00247576090F080E019
:1030600080F00247579000F080E080F012375780E0
:1030700040E0404040E01237572040E0404040E010
:1030800012375740A0E0404040E0123757A000E020
:10309000404040E00256567048E8484870024757A2
:1030A00050A090D0B09090024757402060909090F0
:1030B00060024757204060909090600247576090B0
:1030C000609090906002475750A06090909060028E
:1030D000475790006090909060123353A040A00238
:1030E000465670B0B0D0D0E0024757402090909044
:1030F0009060024757204090909090600247576040
:1031000090909090906002475790009090909060BF
:103110000257571020885020202002465680E09009
:1031200090E0800246566090A0A090A002475740D1
:10313000200070909070024757204000709090706F
:103140000247572050007090907002475750A000DF
:1031500070909070024656500070909070024757E1
:1031600060906070909070025454F068B07811359F
:1031700055608080604002475740200060B0C060CA
:1031800002475720400060B0C0600247576090007F
:1031900060B0C060024656500060B0C06012375741
:1031A000804000C04040E0123757204000C04040FF
:1031B000E012375740A000C04040E0123656A00051
:1031C000C04040E0024757A040A010709060024706
:1031D0005750A000E0909090024757402000609028
:1031E000906002475720400060909060024757600F
:1031F00090006090906002475750A00060909060EF
:103200000246569000609090601235554000E000F4
:103210004002445470B0D0E00247574020009090E4
:10322000907002475720400090909070024757607E
:10323000900090909070024656900090909070018F
:10324000485820400090907090600147578080E07F
:1032500090E0808001475790009090709060FFFF51
:10326000FFC005FFFFFFFFFFFC00003FFFFFFFFF68
:10327000E0000007FFFFFFFF80000001FFFFFFFEEF
:10328000002FF8007FFFFFFC01FFFF803FFFFFF0F2
:103290000FFFFFF00FFFFFE03FF7EFFC07FFFFC05E
:1032A000FFF7F7FE03FFFF81FF67F2FF81FFFF03D8
:1032B000FFA7E6FFC0FFFE07FF27E6FFF07FFC0F3A
:1032C000FF33E47FF03FF81FDF63E67DFC1FF83F2C
:1032D000BE31C67DFC1FF07FBE71873EFE0FE0FF52
:1032E0003C71871C7F07E0FF38F0871E7F07C1FF16
:1032F00038E1871C7F83C3FA1861870C6FC383FB97
:103300001841C2085FC187FC0801C0085FC187F986
:103310000803C0184FE107F9080180184FE00FF1CA
:103320000C0000184FF00FE31C00001847F00FE3EB
:103330000C000018E3F01FC30000000063F00FC78B
:103340000000000061F81FC30000000061F81FC00A
:103350000000000001F81FC00000000003F81FC0BB
:103360000000000003F81FE00000000003F81FE069
:103370000000000003F81FE00000000007F81FF045
:103380000000000007F00FF0A000000507F81FE0A4
:10339000FF00007F83F00FE0FFC001FF83F00FE02C
:1033A0007FE007FF07F00FF03FF80FFE07F007F888
:1033B0001FFC1FF80FE087F807FC3FF01FE187FCB8
:1033C00001FE3F803FE183FF000000007FC1C1FF9D
:1033D00080008001FFC3C1FFF001C007FF83E1FF50
:1033E000F803C01FFF07E0FFFE03E03FFF07F07F89
:1033F000FC03E03FFE0FF83FFC06201FFC1FF81FF8
:10340000FC00001FF81FFC0FF800000FF03FFE0F3C
:10341000F800001FE07FFF03F880010FC0FFFF816D
:10342000FC84119F81FFFFC07EC410BE03FFFFE03C
:103430003FCC13FC07FFFFF007FEFFF00FFFFFFC80
:1034400001FFFF803FFFFFFE001FF4007FFFFFFF33
:1034500080000001FFFFFFFFE0000007FFFF00000A
:10346000000000000000000000000000000000005C
:10347000000000000000000000000000000000004C
:10348000000000000000000000000000000000003C
:103490000000000000000000000000000009120011
:1034A000FC0A01E803D720FFFD0EFD0BFD00000024
:1034B00009000E010B0B0904008080808080808051
:1034C0000000808004040409030790909090080A8B
:1034D0000A090000242424FF2424FF242424070BA9
:1034E0000B0901FF107C929050381412927C100747
:1034F0000A0A09010042A4A4481010244A4A840779
:103500000A0A0901006090909060629488946201B8
:10351000040409040780808080030C0C0903FF2049
:103520004040808080808080404020030C0C090354
:10353000FF804040202020202020404080070707B7
:10354000090103109254385492100707070901012A
:10355000101010FE1010100204040904FEC0C04038
:1035600080070101090104FE020202090400C0C033
:10357000070A0A09010002040408101020404080D4
:10358000070A0A0901003844828282828282443812
:10359000070A0A090100103050901010101010FE98
:1035A000070A0A090100384482020408102040FE7C
:1035B000070A0A090100FE020408180402028478BE
:1035C000070A0A090100040C14244484FE040404BC
:1035D000070A0A090100FE808080F804020284784C
:1035E000070A0A0901003C408080B8C4828244383E
:1035F000070A0A090100FE0204040808101010104E
:10360000070A0A0901003844824438448282443857
:10361000070A0A09010038448282463A0202047805
:10362000020707090400C0C0000000C0C002090969
:103630000904FEC0C0000000C0C04080050909099F
:1036400002000810204080402010080704040901EF
:1036500002FE0000FE050909090200804020100852
:1036600010204080070A0A09010038448202040839
:1036700010100010070A0A09010038449AAAAAAAE1
:10368000AA9C403C070A0A09010010282828447C0B
:1036900044828282070A0A090100F8848284F8843D
:1036A000828284F8070A0A0901003C4280808080F7
:1036B0008080423C070A0A090100F88482828282E3
:1036C000828284F8070A0A090100FE808080F8805F
:1036D000808080FE070A0A090100FE808080F88051
:1036E00080808080070A0A09010038448280808E29
:1036F00082824438070A0A09010082828282FE829D
:1037000082828282050A0A090200F82020202020F5
:10371000202020F8070A0A0901003E0808080808C6
:1037200008888870070A0A09010082848890A0D05E
:1037300088848282070A0A09010080808080808054
:10374000808080FE070A0A0901008282C6AA92824E
:1037500082828282070A0A0901008282C2A2928AB8
:1037600086828282070A0A0901007C828282828222
:103770008282827C070A0A090100F884828284F826
:1037800080808080080B0B0901FF3844828282828E
:10379000828A443A01070A0A090100F88482828475
:1037A000F890888482070A0A0901007C8280807C64
:1037B000020202827C070A0A090100FE10101010A2
:1037C0001010101010070A0A0901008282828282FA
:1037D0008282824438070A0A0901008282824444B4
:1037E0004428282810070A0A09010082828282924E
:1037F000929292AA44070A0A090100828244281080
:103800001028448282070A0A090100828244281093
:103810001010101010070A0A090100FE0204081017
:1038200020408080FE040C0C0903FFF08080808023
:10383000808080808080F0070A0A09010080404073
:1038400020101008040402040C0C0902FFF01010F0
:103850001010101010101010F007040409010610C9
:103860002844820801010900FFFF03030309030A3A
:103870008040200707070901007C02027E82867AC9
:10388000070A0A090100808080BCC2828282C2BC11
:103890000707070901007C82808080827C070A0A72
:1038A0000901000202027A86828282867A0707076D
:1038B0000901007C8282FE80827C070A0A090100DD
:1038C0001C22222020F820202020070A0A0901FDBE
:1038D0007A84848478807C82827C070A0A090100C9
:1038E000808080BCC28282828282050A0A0902002C
:1038F000600000E02020202020F8050D0D0902FDC9
:1039000018000038080808080808888870070A0A9C
:10391000090100808080848890B0C88482050A0AEA
:10392000090200E02020202020202020F80707079F
:10393000090100EC92929292928207070709010016
:10394000BCC282828282820707070901007C8282D0
:103950008282827C070A0A0901FDB8C4828282C47D
:10396000B8808080070A0A0901FD3A4682828246B1
:103970003A0202020707070901009C6242404040E8
:10398000400707070901007C82807C02827C0709CE
:10399000090901002020FC20202020221C07070705
:1039A0000901008282828282867A07070709010064
:1039B0008282444428281007070709010082829266
:1039C0009292AA440707070901008244281028445C
:1039D00082070A0A0901FD42422424241818109083
:1039E00060070707090100FE0408102040FE060BCF
:1039F0000B0902001C20202020C0202020201C01B8
:103A00000C0C0904FF808080808080808080808012
:103A100080060B0B090100E0101010100C101010A4
:103A200010E007030309010762928CFFFFFFFFFF0D
:103A3000FFFFFFFFFFFFFFFFFFFFFFFFFFFFFFFF96
:103A4000FFFFFFFFFFFFFFFFFFFFFFFF0000000979
:103A5000000E010B0B090400808000008080808034
:103A600080808006080809010008789490A0A47856
:103A700040070A0A0901001C222020F8202060A229
:103A80005C070606090103827C44447C82070A0A1B
:103A9000090100828244287C107C101010010B0B5D
:103AA0000904FF8080808080008080808080040BFB
:103AB0000B0902FF6090806090909060109060030E
:103AC000020209030BA0A00809090900013C429960
:103AD000A5A1A599423C05070709010360907090D4
:103AE0007800F8070808090101122448909048243A
:103AF00012060404090102FC040404050101090280
:103B000004F80809090900013C42B9A5BDA9A5426C
:103B10003C060101090109FC040404090306609044
:103B20009060070909090101101010FE1010100023
:103B3000FE0406060901046090106080F004060689
:103B400009010460902010906003030309030A2018
:103B500040800709090901FE8282828282C6BA80FA
:103B600080070A0A0901007E8A8A8A7A0A0A0A0AF2
:103B70000A020202090404C0C00403030902FD2072
:103B8000906003060609010440C0404040E005067D
:103B9000060901047088887000F807080809010107
:103BA0009048241212244890070A0A09010040C0D4
:103BB000404042E60A121A06070A0A09010040C0FC
:103BC00040404CF2020C101E070A0A0901006090E6
:103BD000201092660A121A06070A0A09010010004C
:103BE000101020408082827C070E0E0901002010F8
:103BF000080010282828447C44828282070E0E097F
:103C000001000810200010282828447C4482828269
:103C1000070E0E0901001028440010282828447CB3
:103C200044828282070D0D090100345800102828B3
:103C300028447C44828282070D0D09010028280057
:103C400010282828447C44828282070E0E09010035
:103C50001028281010282828447C44828282070AD1
:103C60000A0901001E2828284E784888888E070DEA
:103C70000D0901FD3C42808080808080423C082408
:103C800018070E0E09010020100800FE808080F841
:103C900080808080FE070E0E09010008102000FEC3
:103CA000808080F880808080FE070E0E0901001061
:103CB000284400FE808080F880808080FE070D0D03
:103CC000090100282800FE808080F880808080FE26
:103CD000050E0E09020040201000F82020202020B0
:103CE000202020F8050E0E09020010204000F820C8
:103CF00020202020202020F8050E0E090200205050
:103D00008800F82020202020202020F8050D0D0913
:103D10000200505000F82020202020202020F8070A
:103D20000A0A09010078444242F2424242447807BA
:103D30000D0D0901003458008282C2A2928A868247
:103D40008282070E0E090100201008007C82828208
:103D500082828282827C070E0E09010008102000F8
:103D60007C82828282828282827C070E0E0901001E
:103D7000102844007C82828282828282827C070DAB
:103D80000D0901003458007C828282828282828204
:103D90007C070D0D0901002828007C828282828226
:103DA0008282827C07070709010182442810284487
:103DB00082070C0C0901FF027C868A8A9292A2A2D9
:103DC000C27C80070E0E090100201008008282824A
:103DD00082828282824438070E0E09010008102078
:103DE0000082828282828282824438070E0E09011A
:103DF00000102844008282828282828282443807B4
:103E00000D0D09010028280082828282828282822E
:103E10004438070E0E090100081020008282442851
:103E2000101010101010070A0A0901008080FC828F
:103E30008282FC808080060A0A09010038444448D6
:103E4000D04844444458070B0B09010020100800D7
:103E50007C02027E82867A070B0B09010008102083
:103E6000007C02027E82867A070B0B090100102873
:103E700044007C02027E82867A070A0A0901003425
:103E800058007C02027E82867A070A0A090100280D
:103E900028007C02027E82867A070C0C0901001041
:103EA000282810007C02027E82867A070707090113
:103EB000006C12127E90926C070A0A0901FD7C8246
:103EC000808080827C104830070B0B090100201095
:103ED00008007C8282FE80827C070B0B09010008AF
:103EE0001020007C8282FE80827C070B0B0901007F
:103EF000102844007C8282FE80827C070A0A090125
:103F0000002828007C8282FE80827C050C0C09023D
:103F1000008040200000E02020202020F8050C0C2C
:103F20000902001020400000E02020202020F80599
:103F30000C0C0902002050880000E02020202020E6
:103F4000F8050B0B09020050500000E02020202053
:103F500020F8070B0B090100483050083C448282CE
:103F6000824438070A0A090100345800BCC2828220
:103F7000828282070B0B090100201008007C8282DC
:103F80008282827C070B0B090100081020007C82D2
:103F9000828282827C070B0B090100102844007C7E
:103FA00082828282827C070A0A0901003458007CDE
:103FB00082828282827C070A0A0901002828007C0A
:103FC00082828282827C0709090901001038100070
:103FD000FE001038100709090901FF027C8A8A9245
:103FE000A2A27C80070B0B090100402010008282F6
:103FF000828282867A070B0B09010008102000825A
:1040000082828282867A070B0B0901001028440005
:104010008282828282867A070A0A090100282800A1
:104020008282828282867A070E0E0901FD040810C0
:104030000042422424241818109060070B0B090139
:10404000FE8080B8C4828282C4B88080070D0D09CA
:1040500001FD2424004242242424181810906058A2
:104060000059005A004D6F7665205A004D6F7665F5
:104070002059004D6F76652058004D756F76692088
:1040800041737365004D3630300043616D62696184
:104090002066696C616D656E746F00466C75737334
:1040A0006F00466C7573736F0056656E746F6C614C
:1040B0000056656E746F6C610050696174746F00B6
:1040C00050696174746F005567656C6C6F32005590
:1040D00067656C6C6F32005567656C6C6F00556777
:1040E000656C6C6F0056656C636974C3A00056659F
:1040F0006C636974C3A0004D656E75207072696E43
:10410000636970616C65004D3234004D3233202597
:1041100073006175746F25692E67005344206361D5
:104120007264206F6B0046616C6C697461206C274F
:1041300061706572747572612043617274656C6C34
:1041400061205072696E636970616C650046616CD4
:104150006C69746F20696C206D6F6E74616767693C
:104160006F2064656C20566F6C756D6500457272CA
:104170006F723A0046616C6C69746120496E697AAD
:1041800069616C697A7A617A696F6E65205344005F
:104190006563686F3A005A004D6F766520302E31A6
:1041A0006D6D004D6F766520316D6D004D756F76CC
:1041B000692041737365004D6F766520302E316D37
:1041C0006D004D6F766520316D6D004D6F76652009
:1041D00031306D6D005072657061726100000609CA
:1041E00000FE070199032B20FFFE08FE07FE0000DA
:1041F0000006000001070706020080808080800022
:1042000080030303060104A0A0A005070706000021
:104210005050F850F850500507070600002070A0D5
:104220007028702005070706000048A8502050A8F5
:104230009005070706000040A0A040A89068010371
:1042400003060204808080030707060100204080E7
:104250008080402003070706010080402020204086
:10426000800505050600018850F8508805050506FB
:1042700000012020F820200303030601FF60408096
:10428000050101060003F80303030601FF40E040B7
:104290000507070600000808102040808005070772
:1042A0000600002050888888502005070706000077
:1042B0002060A0202020F80507070600007088086D
:1042C000304080F8050707060000F808103008881D
:1042D0007005070706000010305090F81010050711
:1042E00007060000F880B0C80888700507070600B8
:1042F00000304080B0C88870050707060000F80845
:10430000101020404005070706000070888870885C
:104310008870050707060000708898680810600319
:1043200007070601FF40E0400040E04003070706A2
:1043300001FF40E0400060408004070706010010D4
:10434000204080402010050303060002F800F80416
:10435000070706010080402010204080050707065F
:10436000000070881020200020050707060000705C
:104370008898A8B08070050707060000205088883C
:10438000F88888050707060000F04848704848F09C
:104390000507070600007088808080887005070781
:1043A000060000F04848484848F0050707060000A6
:1043B000F88080F08080F8050707060000F880800C
:1043C000F08080800507070600007088808098884C
:1043D00070050707060000888888F8888888030722
:1043E00007060100E04040404040E00507070600A6
:1043F0000038101010109060050707060000889024
:10440000A0C0A090880507070600008080808080FB
:1044100080F80507070600008888D8A888888805DE
:1044200007070600008888C8A89888880507070637
:10443000000070888888888870050707060000F0EB
:104440008888F08080800508080600FF70888888CA
:1044500088A87008050707060000F08888F0A0907B
:1044600088050707060000708880700888700507B7
:1044700007060000F820202020202005070706005E
:104480000088888888888870050707060000888863
:104490008850505020050707060000888888A8A883
:1044A000D8880507070600008888502050888805AE
:1044B00007070600008888502020202005070706EF
:1044C0000000F80810204080F8030707060100E00C
:1044D0008080808080E00507070600008080402003
:1044E000100808030707060100E02020202020E034
:1044F0000503030600042050880501010600FFF8AB
:10450000020202060206804005050506000070084A
:104510007888780507070600008080B0C888C8B092
:1045200005050506000070888088700507070600ED
:1045300000080868988898680505050600007088D6
:10454000F88070050707060000304840F040404002
:104550000507070600FE7888887808887005070731
:104560000600008080B0C88888880307070601001D
:104570004000C0404040E00409090601FE10003040
:10458000101010909060050707060000808088904A
:10459000E09088030707060100C04040404040E02B
:1045A000050505060000D0A8A8A888050505060091
:1045B00000B0C888888805050506000070888888CE
:1045C000700507070600FEB0C888C8B080800507E0
:1045D000070600FE68988898680808050505060023
:1045E00000B0C88080800505050600007080700856
:1045F000F00507070600004040F040404830050540
:10460000050600008888889868050505060000886A
:10461000885050200505050600008888A8A8500588
:10462000050506000088502050880507070600FE93
:1046300088889868088870050505060000F810202D
:1046400040F8040707060100304020C02040300138
:1046500007070602008080808080808004070706AC
:104660000100C02040304020C0050303060004487C
:10467000A890000000010000000000010000000000
:104680000001000000000001000000000001000027
:104690000000000100000000000100000000000117
:1046A0000000000000010000000000010000000008
:1046B00000010000000000010000000000010000F7
:1046C00000000001000000000001000000000001E7
:1046D00000000000000100000000000100000000D8
:1046E00000010000000000010000000000010000C7
:1046F00000000001000000000001000000000001B7
:1047000000000000000100000000000100000000A7
:104710000001000000000001000000000001000096
:104720000000000100000000000100000000000186
:10473000000000000001000000000006000001076A
:104740000706020080008080808080050707060041
:10475000FF2078A0A0A078200507070600003048B9
:1047600040E04048B005050506000088705070889C
:104770000508080600FF88885020F820202001073F
:1047800007060200808080008080800508080600FF
:10479000FF7080E09048380870030101060107A00F
:1047A0000507070600007088A8C8A88870040606D8
:1047B0000601017090B05000F006050506000024C7
:1047C00048904824040202060102F0100401010688
:1047D0000103F00507070600007088E8C8C8887064
:1047E000050101060007F803030306010440A04089
:1047F0000506060600002020F82020F8040505061E
:10480000010360902040F0040505060103E01060FC
:1048100010E002020206020640800506060600FFBE
:10482000888888C8B08005070706000078E8E8682F
:10483000282828010101060203800202020602FE66
:10484000408003050506010340C04040E004060621
:104850000601016090906000F006050506000090DA
:10486000482448900609090600FF40C04040E40C77
:10487000143C040609090600FF40C04040E8140447
:10488000081C0509090600FFC0204020C818287828
:104890000805070706000020002020408870050852
:1048A000080600004020708888F8888805080806F7
:1048B00000001020708888F8888805080806000025
:1048C0002050708888F8888805080806000048B0DD
:1048D000708888F8888805080806000050007088ED
:1048E00088F888880508080600002050708888F835
:1048F00088880607070600003C50909CF0909C05B5
:1049000009090600FE7088808080887020400508B4
:104910000806000040F88080F08080F8050808064E
:10492000000010F88080F08080F80508080600007C
:1049300020F88080F08080F805080806000050F814
:104940008080F08080F80308080601008040E04085
:10495000404040E00308080601002040E04040409D
:1049600040E003080806010040A0E040404040E06D
:10497000030808060100A000E040404040E00507B1
:1049800007060000F04848E84848F0050808060017
:1049900000285088C8A898888805080806000040A4
:1049A000207088888888700508080600001020702C
:1049B000888888887005080806000020507088885C
:1049C0008888700508080600002850708888888844
:1049D00070050808060000500070888888887005F7
:1049E00005050600008850205088050707060000CE
:1049F000709898A8C8C8700508080600004020886C
:104A00008888888870050808060000102088888833
:104A1000888870050808060000205000888888886B
:104A2000700508080600005000888888888870058E
:104A3000080806000010208888502020200507075D
:104A400006000080F088F0808080050707060000DF
:104A5000708890A09088B0050808060000402000EB
:104A60007008788878050808060000102000700893
:104A700078887805080806000020500070087888BB
:104A80007805080806000028500070087888780526
:104A900007070600005000700878887805080806A7
:104AA0000000205020700878887806050506000070
:104AB00078147C907C0507070600FE70888088705B
:104AC00020400508080600004020007088F880702B
:104AD0000508080600001020007088F8807005089E
:104AE000080600002050007088F88070050707064F
:104AF000000050007088F8807003080806010080EC
:104B00004000C0404040E00308080601004080002B
:104B1000C0404040E003080806010040A000C0403B
:104B20004040E0060A0A0600FEA4A800FC8480803B
:104B30008084FC060A0A0600FE549400FC840404E7
:104B40000484FC050808060000285000B0C88888C6
:104B500088050808060000402000708888887004D6
:104B60000A0A0602FE304080909090909090900447
:104B70000A0A0600FEC02010909090909090900637
:104B80000707060001448C8C8480403C060707061A
:104B9000000188C4C4840408F0050505060001204E
:104BA00000F8002005080806000040F0C888889832
:104BB0007810050808060000E0F88888888888F8DA
:104BC0000505050600012030F8302005080806001C
:104BD000002070F820202020E00509090600FF20B1
:104BE00070A8A8B8888850200509090600FFE08051
:104BF000C0B0A8A83028280509090600FFF8A88831
:104C000088888888A8F8050A0A0600FE20505050B7
:104C10005088A8A888705344204361726420726948
:104C20006D6F737361005344204361726420696E39
:104C3000736572697461005265696E766961746F3B
:104C40003A006F6B002200656E717565696E6720B2
:104C500022003E002C002C0057506F733A002C00AD
:104C60002C002C007C4D506F733A003C49646C65FD
:104C7000004D6F646F207461676C696F206C6173A5
:104C80006572004D6F646F20434E43004D656E7535
:104C9000207072696E636970616C6500F800FA00DB
:104CA00011241FBECFEFD1E2DEBFCDBF00E00CBFAD
:104CB00014E0A0E0B2E0E4EAF5E202E00BBF02C0DB
:104CC00007900D92AE3DB107D9F725E1AEEDB4E006
:104CD00001C01D92AB32B207E1F716E2CFE4D6E293
:104CE00000E006C021970109802FFE010F94EF110B
:104CF000CE34D10780E00807A9F70E94B6FD0D94D5
:104D0000C1120C9400002F923F924F925F926F92CB
:104D10007F928F929F92AF92BF92CF92DF92EF924B
:104D2000FF920F931F93CF93DF93CDB7DEB7CD568E
:104D3000D1090FB6F894DEBF0FBECDBF87E40E9445
:104D400063F2D82E882309F499C10E9489F20F9446
:104D5000950F6430710509F49EC09CF461307105B3
:104D600009F460C024F4672B29F10C94D14262301D
:104D7000710509F465C06330710509F475C00C94C0
:104D8000D1426A35710509F42CC154F46C317105B6
:104D900009F4C5C06F31710509F4C5C00C94D14246
:104DA0006B35710509F421C16C35710509F422C117
:104DB0000C94D1428091410290914202892B91F151
:104DC000C0901102D0901202E0901302F0901402F1
:104DD00000913B0510913C050E94C5A70E94B1813E
:104DE0000E9458F180E090E8ABEBB4E480931102AC
:104DF00090931202A0931302B093140210923C05F8
:104E000010923B050E9408F00E94B181C0921102ED
:104E1000D0921202E0921302F092140210933C0519
:104E200000933B0580914B0581110AC08AE50E94E1
:104E300063F281110E94B1810E9458F10C947C426E
:104E400080914B05811110C08091410290914202E6
:104E5000892B31F08AE50E9463F281110E94B181B1
:104E60000E94DCF181E013C080914B05811113C0D9
:104E70008091410290914202892B31F08AE50E9493
:104E800063F281110E94B1810E94DCF180E00E94F6
:104E9000FDEC0C949B468AE798E00E94FD7F80E53C
:104EA0000E9463F2882339F00E9489F20F949A0FCE
:104EB0006B017C0103C0C12CD12C760183E50E94DB
:104EC00063F2882361F00E9489F220E030E04AE733
:104ED00054E40F942B070F949A0F6B017C010E94EE
:104EE000B1810E947A7CC60ED71EE81EF91E0E9470
:104EF0007A7C60935D0F70935E0F80935F0F909349
:104F0000600F0E947A7C6C157D058E059F0510F060
:104F10000C94D1420E9455AD0E9488E7F2CF0E94C6
:104F200092F20C94D1428091410290914202892BDD
:104F300011F40C94D1420E94C5A7C0901102D090E8
:104F40001202E0901302F09014020E94B18180914D
:104F5000820F9091830FA091840FB091850F809361
:104F6000720F9093730FA093740FB093750F80918D
:104F7000860F9091870FA091880FB091890F809331
:104F8000760F9093770FA093780FB093790F80915D
:104F90008A0F90918B0FA0918C0FB0918D0F809301
:104FA0007A0F90937B0FA0937C0FB0937D0F80E0DE
:104FB00090E8ABEBB4E48093110290931202A093BB
:104FC0001302B09314020E9408F00E94B181C092B3
:104FD0001102D0921202E0921302F09214020C9489
:104FE0009B46109252050C94D14281E08093520569
:104FF0000C94D14285E40E9463F2811102C00E94A8
:10500000B181A0EBAA2EA2E0BA2EBDE0EB2EB2E158
:10501000FB2E1EE8C12E1FE0D12E10E0D5018D9190
:105020005D010E9463F28823F1F0133051F40E9475
:1050300089F2F70160837183828393830E94CB8915
:1050400012C00E9489F29B01AC01D6016D917D9145
:105050008D919C910F94510EF7016083718382832F
:1050600093830E94A0F71F5FF4E0EF0EF11C04E0B1
:10507000C00ED11C143091F60C94D1428DE40E94E4
:1050800063F2882311F40C942E420E9489F20F944B
:10509000950F6836710509F447C70CF09FC06B3156
:1050A000710509F41AC40CF041C06231710511F4A4
:1050B0000C94AA310CF56530710509F4B4C174F48F
:1050C00077FF02C00C94D142623071050CF406C324
:1050D0006330710509F471C10C94D1426B307105D4
:1050E00009F4F0C16131710509F44DC36A307105ED
:1050F00011F00C94D142C5C16731710509F4ABC3FD
:1051000074F46531710509F49CC30CF09EC36431DD
:10511000710511F00C94D142E5EFF7E04CC3693111
:10512000710509F4C2C30CF4ADC3C9C3643271057F
:1051300009F44BC2E4F46032710509F4CDC564F49E
:105140006E31710509F450C40CF067C66C317105FD
:1051500009F417C40C94D14280914102909142020B
:105160006232710509F4EFC10CF4CCC10DC2623595
:10517000710511F40C94A13174F46035710511F4CA
:105180000C94793114F00C9486316A32710509F46B
:10519000ADC60C94D1426435710511F40C94AA315A
:1051A00014F40C94A5316535710511F40C94DD31BE
:1051B0006C35710511F00C94D14240EB842E42E025
:1051C000942E01E412E15BE1A52E55E0B52EE9E451
:1051D000FFE0FDAFECAF312C0C945B326C3D710500
:1051E00011F40C9438350CF071C06737710511F467
:1051F0000C94733354F56D36710509F4B1C794F40A
:105200006A36710511F40C9449310CF4BCC66B3646
:10521000710511F00C94D1421092A00F10929F0FC3
:105220000C94D1426337710511F40C946B326537DD
:10523000710511F40C947A326237710511F00C94F7
:10524000D142E0ECF6E00C949632693C710511F421
:105250000C946A3474F46937710511F40C946E334C
:1052600014F40C946A336C38710509F47BC60C9401
:10527000D1426C3C710511F40C94A0348CF46B3C5D
:10528000710511F00C94D14290EBE92E92E0F92EC9
:105290000BE115E02BE2C22E25E0D22E0C949134C6
:1052A0006D3C710511F40C94C2346E3C710511F023
:1052B0000C94D14210EBE12E12E0F12E0EE81FE02B
:1052C0008AE9C82E8FE0D82E0C942935603911E078
:1052D000710711F40C94813D44F56C3231E0730791
:1052E00011F40C946E358CF4623E710511F40C943B
:1052F0005A356A3F710511F40C94CB386D3D710538
:1053000011F00C94D1420C9449356E3251E075077E
:1053100011F40C94F83814F40C9406386F32714080
:1053200011F40C9403390C94D142673FA1E07A0741
:1053300011F40C948A3D94F4653FE1E07E0711F48A
:105340000C94843D14F00C94873D643F714011F03F
:105350000C94D1420E9481A90C94D142643813E08C
:10536000710709F457C13CF46835724011F40C948C
:10537000F43F0C94D142603A43E0740709F417C536
:10538000673E734011F00C94D14210924B050E947D
:10539000DA7F8091610F9091620FA091630FB091BD
:1053A000640F80934C0590934D05A0934E05B093E8
:1053B0004F050E9432F20C94D1420E94B18180913B
:1053C000410290914202029711F00C94D14283E580
:1053D0000E9463F2882341F00E9489F20F94950F96
:1053E00070933C0560933B0581E080933A056091A2
:1053F0003B0570913C0586E00E94567BEFEEF2E0A3
:105400008191882339F09091C00095FFFCCF809363
:10541000C600F6CF8091C00085FFFCCF8AE0809364
:10542000C6000C94D1420E94B181809141029091BA
:105430004202029711F00C94D14283E50E9463F27C
:10544000882341F00E9489F20F94950F70933C05D8
:1054500060933B050E94C5A7ECEFF2E081918823A1
:1054600039F09091C00095FFFCCF8093C600F6CF35
:105470008091C00085FFFCCF8AE08093C6000C9429
:10548000D1428091410290914202029711F00C9416
:10549000D14281E080933D052C9AECE0F3E08191CC
:1054A000882339F09091C00095FFFCCF8093C6000F
:1054B000F6CF8091C00085FFFCCF8AE08093C600C4
:1054C0000C94D1428091410290914202029711F0D6
:1054D0000C94D14210923D052C98EDE1F3E08191BE
:1054E000882339F09091C00095FFFCCF8093C600CF
:1054F000F6CF8091C00085FFFCCF8AE08093C60084
:105500000C94D142029711F00C94D1429FB7F894B9
:10551000809102018064809302019FBFEAE2F3E080
:105520008191882339F09091C00095FFFCCF809342
:10553000C600F6CF8091C00085FFFCCF8AE0809343
:10554000C6000C94D142029711F00C94D1429FB73F
:10555000F894809102018F7B809302019FBFEDE35D
:10556000F3E08191882339F09091C00095FFFCCF42
:105570008093C600F6CF8091C00085FFFCCF8AE003
:105580008093C6000C94D142029711F00C94D14242
:105590009FB7F894809102018062809302019FBFBF
:1055A000E3E5F3E08191882339F09091C00095FF05
:1055B000FCCF8093C600F6CF8091C00085FFFCCF62
:1055C0008AE08093C6000C94D14280914102909170
:1055D0004202029711F00C94D1429FB7F894809147
:1055E00002018F7D809302019FBFEEE5F3E0819180
:1055F000882339F09091C00095FFFCCF8093C600BE
:10560000F6CF8091C00085FFFCCF8AE08093C60072
:105610000C94D14283E50E9463F28823E9F00E9452
:1056200089F26B017C0120E030E0A9010F947C102D
:1056300087FD12C020E030E040E450E4C701B6012D
:105640000F94DB0A87FF08C0C701B6010F94950FBE
:105650007093420260934102809141029091420214
:10566000892B69F4E2E6F8E08491882341F0909177
:10567000C00095FFFCCF8093C6003196F5CF809196
:10568000410290914202019769F4E3E5F8E08491C8
:10569000882341F09091C00095FFFCCF8093C60015
:1056A0003196F5CF8091410290914202029769F4C0
:1056B000EBE3F8E08491882341F09091C00095FFDE
:1056C000FCCF8093C6003196F5CF8091C00085FF56
:1056D000FCCF8AE08093C6000C94D14289E298E026
:1056E0000E94FD7F80E50E9463F2882339F00E94CA
:1056F00089F20F949A0F6B017C0103C0C12CD12C4D
:10570000760183E50E9463F2882361F00E9489F2AA
:1057100020E030E04AE754E40F942B070F949A0FEF
:105720006B017C010E94B1810E947A7C60935D0FC5
:1057300070935E0F80935F0F9093600FC114D1043C
:10574000E104F104B1F00E947A7CC60ED71EE81E77
:10575000F91E0E947A7C6C157D058E059F0510F060
:105760000C94D4420E944D7F81110C94D4420C942D
:10577000D9420E944D7F81110C94D4420E9455ADB4
:105780000E9488E7F6CF87E098E00E94FD7F5F984F
:105790008A989FB7F894809108018E7F80930801C2
:1057A0009FBF12980C94D1429091C00095FFFCCFFE
:1057B0008093C600319684918111F6CF8091C0000C
:1057C00085FFFCCF8AE08093C600109218151092D6
:1057D000171582EC92E10E944FAA8BE1E2ECF2E114
:1057E000DE01159601900D928A95E1F78091C01225
:1057F0009091C1129C838B838AEC92E09A83898377
:10580000BE016F5F7F4F8BEE93E00E94F58DCE015E
:1058100001960E9464ACE5EEF7E08491882341F0A4
:105820009091C00095FFFCCF8093C6003196F5CFD4
:105830008091C00085FFFCCF8AE08093C6000C9465
:10584000D1420E94D0DA0C94D1421092911210925F
:1058500092120C94D14200915005109151050C5FA9
:105860001F4F6AE270E0C8010F949212009719F07E
:10587000FC013197108241E061E0C8010E94D88AA2
:105880000C94D14280919212882319F081E0809388
:1058900091120E947A7C6093430570934405809333
:1058A0004505909346050C94D1428091911288232E
:1058B00011F40C94D142109291120C94D142809127
:1058C0009212882311F40C94D14283E50E9463F272
:1058D00081110C94DF420C94D14280919212882362
:1058E00009F439C0E5E3F2E08491882341F0909116
:1058F000C00095FFFCCF8093C6003196F5CF609134
:1059000012157091131580911415909115154AE098
:105910000E942ADDE3E3F2E08491882341F0909134
:10592000C00095FFFCCF8093C6003196F5CF609103
:105930000A1570910B1580910C1590910D154AE088
:105940000E942ADD8091C00085FFFCCF8AE0809311
:10595000C6000C94D142E5E5F2E08491882341F041
:105960009091C00095FFFCCF8093C6003196F5CF93
:105970008091C00085FFFCCF8AE08093C6000C9424
:10598000D14280915005909151056AE270E00496F1
:105990000F9492128C01892BE1F020916E073091C7
:1059A0006F0740E6429FC001439F900D11246EE4B3
:1059B00070E082519A4F0F94921260E270E00F945F
:1059C000921201969093510580935005F8013197FA
:1059D0001082809150059091510541E060E004965D
:1059E0000E94D88A0C94D14280919212882311F49B
:1059F0000C94D1428DE594E10E9409918DE594E1EA
:105A00000E94319710928F1210929012809150053F
:105A1000909151056AE270E004960F9492128C0105
:105A2000892BE1F020916E0730916F0740E6429F8D
:105A3000C001439F900D11246EE470E082519A4F93
:105A40000F94921260E270E00F949212019690937C
:105A5000510580935005F801319710828091921280
:105A6000882311F40C94D1420091500510915105F6
:105A7000580184E0A80EB11C8DE594E10E94319795
:105A8000109291121D8218861C821B828AEC92E071
:105A90009A8389838EEB92E19093DE128093DD12DC
:105AA000D80114968C918F3209F08FC06FE270E0AC
:105AB000C5010F9492128C010F5F1F4FFAE0CF2E99
:105AC000FE0131964F010115110509F484C06FE202
:105AD00070E0C8010F9492127C01009709F47CC019
