:100000000C940E240C943F240C943F240C943F2415
:100010000C943F240C943F240C943F240C943F24D4
:100020000C943F240C943F240C943F240C943F24C4
:100030000C943F240C945F830C943F240C943F2435
:100040000C943F240C9417930C943F240C943F245D
:100050000C943F240C943F240C9403AE0C943D6606
:100060000C943F240C940E770C943F240C943F2462
:100070000C943F240C943F240C943F240C943F2474
:100080000C943F240C943F240C943F240C943F2464
:100090000C943F240C943F240C943F240C94D76779
:1000A0000C943F240C943F240C943F240C943F2444
:1000B0000C943F240C943F240C943F240C943F2434
:1000C0000C943F240C943F240C943F240C943F2424
:1000D0000C943F240C943F240C943F240C943F2414
:1000E0000C943F248463876376637A638063BE6382
:1000F0008B638F63956399639D63A363A763AB630E
:10010000BE63B163B563B963346539653E654865FF
:100110005265CB655C6564656C65766580658A65EE
:100120009965A365CB65AD65B765C16531ADA1AB1B
:10013000D7AB6DADD7ABD7ABD7ABD7ABD7ABD7AB17
:10014000D7ABD7ABD7ABD7ABD7ABD7ABD7ABD7AB9F
:10015000D7ABD7ABD7ABD7ABD7ABD7ABD7ABD7AB8F
:10016000D7ABD7ABD7ABD7AB67ADD7ABD7ABD7ABED
:10017000D7ABD7ABD7ABD7ABD7AB41ADD7ABD7AB03
:10018000D7ABD7ABD7ABD7ABD7ABD7ABD7ABD7AB5F
:100190008AADD4AB084AD73B3BCE016E84BCBFFDD1
:1001A000C12F3D6C74319ABD56833DDA3D00C77F47
:1001B00011BED9E4BB4C3E916BAAAABE00000080E0
:1001C0003F05A84CCDB2D44EB93836A9020C50B96F
:1001D000918688083CA6AAAA2ABE000000803F009B
:1001E0004E414E494E495459494E46CDCCCC3D0A1C
:1001F000D7233C17B7D13877CC2B329595E6241FFF
:10020000B14F0A000020410000C84200401C4620B7
:10021000BCBE4CCA1B0E5AAEC59D742F005369203C
:10022000737461207363726976656E646F20696CA4
:10023000206279746520737520534420004E6F6EE0
:1002400020736920737461207363726976656E64CC
:100250006F207375205344002E0044656C657469EB
:100260006F6E206661696C65642C2046696C653A26
:10027000200046696C652064656C657465643A00AD
:100280002E006F70656E206661696C65642C204677
:10029000696C653A2000205A0020590020204D3218
:1002A0003036205800486F6D65206F666673657440
:1002B00020286D6D293A00204500205A0020580062
:1002C00020420020540020204D3230352053004180
:1002D0006476616E636564207661726961626C65E3
:1002E000733A20533D4D696E206665656472617492
:1002F0006520286D6D2F73292C20543D4D696E208B
:1003000074726176656C20666565647261746520DF
:10031000286D6D2F73292C20423D6D696E696D75B6
:100320006D207365676D656E742074696D65202836
:100330006D73292C20583D6D6178696D756D20585D
:1003400059206A65726B20286D6D2F73292C20202F
:100350005A3D6D6178696D756D205A206A65726BC2
:1003600020286D6D2F73292C2020453D6D61786903
:100370006D756D2045206A65726B20286D6D2F7339
:10038000290020540020204D323034205300416396
:1003900063656C65726174696F6E3A20533D616389
:1003A00063656C65726174696F6E2C20543D726573
:1003B000747261637420616363656C6572617469F2
:1003C0006F6E00204500205A0020590020204D3239
:1003D00030312058004D6178696D756D204163633F
:1003E000656C65726174696F6E20286D6D2F733254
:1003F000293A00204500205A0020590020204D3283
:1004000030332058004D6178696D756D20666565E3
:1004100064726174657320286D6D2F73293A002012
:100420004500205A0020590020204D393220580024
:1004300053746570732070657220756E69743A002C
:100440002200436F6D616E646F2073636F6E6F7314
:10045000636975746F3A20220043616D626961209F
:1004600066696C616D656E746F006C636420636FA8
:100470006E74726173742076616C75653A20007ACF
:100480005F6D61783A20007A5F6D696E3A2000797D
:100490005F6D61783A2000795F6D696E3A2000786F
:1004A0005F6D61783A2000785F6D696E3A20005A7E
:1004B0003A00593A002043616C636F6C6120583AEE
:1004C0002000453A005A3A00593A00583A00464945
:1004D000524D574152455F4E414D453A4D61726C08
:1004E000696E2056313B20537072696E7465722FAD
:1004F0006772626C206D617368757020666F722020
:1005000067656E36204649524D574152455F5552F8
:100510004C3A6D2050524F544F434F4C5F5645520A
:1005200053494F4E3A312E30204D414348494E45B4
:100530005F545950453A52452D435554204558541F
:1005400052554445525F434F554E543A312055550C
:1005500049443A30303030303030302D3030303067
:100560002D303030302D303030302D303030303094
:10057000303030303030300A0052452D4355542051
:100580004F66662E0052452D4355542050726F6EB3
:10059000746F002569206D696E2C202569207365B4
:1005A000630046696E65204C697374612046696C0E
:1005B0006500496E697A696F204C697374612046E1
:1005C000696C65004E657373756E204D6F76696D4D
:1005D000656E746F2E0052697072656E6469205387
:1005E00074616D706100417474656E646920557446
:1005F000656E74652E2E2E006D6F646F3A204D6F00
:10060000646F207461676C696F206C617365720040
:100610006D6F646F3A204D6F646F20434E43006DE1
:100620006F646F3A204D6F646F207374616D7061F9
:100630006E746520334400536F7370656E73696F19
:100640006E652E2E2E005A70617373692F6D6D00CA
:100650005A70617373692F6D6D005970617373699E
:100660002F6D6D005970617373692F6D6D00587037
:10067000617373692F6D6D005870617373692F6DAD
:100680006D00416D61787A00416D61787A00416D4D
:1006900061787900416D61787900416D6178780009
:1006A000416D617878005654726176206D696E00F4
:1006B0005654726176206D696E00566D696E0056F3
:1006C0006D696E00566D61787A00566D61787A00BA
:1006D000566D61787900566D61787900566D617854
:1006E0007800566D61787800567A2D6A65726B00D5
:1006F000567A2D6A65726B005678792D6A65726B31
:10070000005678792D6A65726B00416363656C00F1
:10071000416363656C00436F6E74726F6C6C6F0045
:100720004D383420582059205A2045004E6F205310
:100730004420436172640053442043617264204D3D
:10074000656E750041727265737461205374616DDA
:1007500070610052697072656E6469205374616DD6
:10076000706100506175736100436F6E74726F6CDD
:100770006C6F00436F6E74726F6C6C6F206C617382
:1007800065720050726570617261004775617264D4
:10079000610020536F6674776172652052657365DE
:1007A0007400205761746368646F672052657365D5
:1007B00074002042726F776E206F757420526573DB
:1007C0006574002052657365742045737465726E9C
:1007D0006F004772626C2076312E31004772626C76
:1007E0002076312E31205B27242720666F72206807
:1007F000656C705D004D383420582059205A2045D2
:10080000006563686F3A00256920686F7572732010
:100810002569206D696E757465730046696C652085
:100820007374616D7061746F00415252455354414D
:10083000544F2E20005374616D70616E7465206694
:1008400065726D61746120612063617573612064FC
:1008500069206572726F72692E205269736F6C76AF
:1008600069206C276572726F7265206520757361EF
:10087000204D393939207065722072697061727447
:10088000697265212E202852657365742074656D28
:1008900070657261747572612E20496D706F73742A
:1008A000616C61207072696D612064692072697089
:1008B00061727469726529006F6B004E65737375A0
:1008C0006E204E756D65726F206469204C696E658F
:1008D0006120636F6E20436865636B73756D2C20B8
:1008E000556C74696D61204C696E65613A20004EEB
:1008F000657373756E20436865636B73756D2063F4
:100900006F6E204E756D65726F206469204C696E44
:1009100065612C20556C74696D61204C696E656150
:100920003A2000636865636B73756D206E6F6E208F
:10093000636F72726973706F6E64656E74652C207C
:10094000556C74696D61204C696E65613A2000498F
:100950006C204E756D65726F2064656C6C61204C07
:10096000696E6561206E6F6E20636F72726973705D
:100970006F6E646520616C204E756D65726F2064CA
:10098000656C6C27556C74696D61204C696E65618E
:100990002B312C20556C74696D61204C696E65613A
:1009A0003A20004572726F723A004D313130006F5B
:1009B0006B00244A3D006F6B00244800242400454E
:1009C00072726F7265206E656C6C61207363726900
:1009D00074747572612073752066696C650052616C
:1009E000676769756E746F20656E6473746F703AB3
:1009F000205A00205A3A005261676769756E746F19
:100A000020656E6473746F703A20590020593A0063
:100A10005261676769756E746F20656E6473746F79
:100A2000703A20580020583A005261676769756E25
:100A3000746F20656E6473746F703A20006563682C
:100A40006F3A0046696C652053616C7661746F2E55
:100A5000006F6B004D32390059002D2D3A2D2D00BD
:100A60000000000000000000000000000000000086
:100A70000000000000000000000000000000000076
:100A80003FFE000000000000000000000000000029
:100A900055550000000000000000000000000000AC
:100AA000555500000000000000000000000000009C
:100AB000555500000000000000000000000000008C
:100AC000555500000000000000000000000000007C
:100AD000555500000000000000000000000000006C
:100AE000555500000000000000000000000000005C
:100AF000555500000000000000000000000000004C
:100B0000555500000000000000000000000000003B
:100B1000555500000000000000000000000000002B
:100B20003FFE000000000000000000000000000088
:100B30003FFE000000000000000000000000000078
:100B40003FFE000000000000000000000000000068
:100B50001FFC00000000000000000000000000007A
:100B60000FF800000000000000000000000000007E
:100B700007F000000000000000000000000000007E
:100B800003E0000000000000000000000000000082
:100B900001C0000000000000000000000000000094
:100BA00000800000000000000000000000000000C5
:100BB00000800000000000000000000000000000B5
:100BC00000800000000000000000000000000000A5
:100BD00008A8000000000000000000000000000065
:100BE0000490000000000000000000000000000071
:100BF0001AA000000000000000000000000000003B
:100C000004EA0000000000000000000000000000F6
:100C10000080000000000000000000000000000054
:100C200000000000000000000000000000000000C4
:100C300000000000000000000000000000000000B4
:100C40003FFE000000000000000000000000000067
:100C500055550000000000000000000000000000EA
:100C600055550000000000000000000000000000DA
:100C700055550000000000000000000000000000CA
:100C800055550000000000000000000000000000BA
:100C900055550000000000000000000000000000AA
:100CA000555500000000000000000000000000009A
:100CB000555500000000000000000000000000008A
:100CC000555500000000000000000000000000007A
:100CD000555500000000000000000000000000006A
:100CE0003FFE0000000000000000000000000000C7
:100CF0003FFE0000000000000000000000000000B7
:100D00003FFE0000000000000000000000000000A6
:100D10001FFC0000000000000000000000000000B8
:100D20000FF80000000000000000000000000000BC
:100D300007F00000000000000000000000000000BC
:100D400003E00000000000000000000000000000C0
:100D500001C00000000000000000000000000000D2
:100D60000080000000000000000000000000000003
:100D700000800000000000000000000000000000F3
:100D800000800000000000000000000000000000E3
:100D900000800000000000000000000000000000D3
:100DA00000800000000000000000000000000000C3
:100DB00000800000000000000000000000000000B3
:100DC00000800000000000000000000000000000A3
:100DD0000080000000000000000000000000000093
:100DE0000000000000000000000000000000000003
:100DF00000000000000000000000000000000000F3
:100E00003FFE0000000000000000000000000000A5
:100E10005555000000000000000000000000000028
:100E20005555000000000000000000000000000018
:100E30005555000000000000000000000000000008
:100E400055550000000000000000000000000000F8
:100E500055550000000000000000000000000000E8
:100E600055550000000000000000000000000000D8
:100E700055550000000000000000000000000000C8
:100E800055550000000000000000000000000000B8
:100E900055550000000000000000000000000000A8
:100EA0003FFE000000000000000000000000000005
:100EB0003FFE0000000000000000000000000000F5
:100EC0003FFE0000000000000000000000000000E5
:100ED0001FFC0000000000000000000000000000F7
:100EE0000FF80000000000000000000000000000FB
:100EF00007F00000000000000000000000000000FB
:100F000003E00000000000000000000000000000FE
:100F100001C0000000000000000000000000000010
:100F20000080000000000000000000000000000041
:100F300000000000000000000000000000000000B1
:100F400000000000000000000000000000000000A1
:100F50000000000000000000000000000000000091
:100F60000000000000000000000000000000000081
:100F70000000000000000000000000000000000071
:100F80000000000000000000000000000000000061
:100F90000000000000000000000000000000000051
:100FA0000000000000000000000000007FFFE000E3
:100FB00000000000000000000000007000E00000E1
:100FC0000000000000000000000061F86000000068
:100FD00000000000000000000041F82000000000B8
:100FE000000000000000000040F0200000000000B1
:100FF0000000000000000040602000000000000031
:101000000000000000005801A07F80003FC0003FAA
:10101000C0004104005C63A0FBC00079E00079E0FF
:10102000002082005EF7A0F3C00076E00076E000CA
:101030002082005EF7A0EBC0007EE0007EE0004171
:1010400004005C63A07B80003DC00039C0008208C2
:10105000005801A07B80003BC0003EC0010410008E
:10106000406020FBC00077E00076E0010410004003
:10107000F020FBC00070E00079E00082080041F839
:1010800020FFC0007FE0007FE00041040061F860C5
:101090003F00001F80001F80000000007000E01E65
:1010A00000000F00000F0001FFFF807FFFE00C0039
:1010B00000060000060001FFFF80000000000000A5
:1010C0000000000000000000007FFFE000000000C2
:1010D00000000000000000007000E00000000000C0
:1010E00000000000000000630C6000000000000031
:1010F000000000000000470E20000000000000007B
:1011000000000000004F0F20000000000000000061
:10111000000000005F0FA0000000000000000000C1
:101120000000005E07A07F80003FC0003FC000417C
:101130000400406020FBC00079E00079E0002082DC
:101140000040F020F3C00076E00076E0002082004E
:1011500040F020EBC0007EE0007EE0004104004053
:1011600060207B80003DC00039C0008208005E071F
:10117000A07B80003BC0003EC0010410005F0FA0B8
:10118000FBC00077E00076E0010410004F0F20FB69
:10119000C00070E00079E000820800470E20FFC028
:1011A000007FE0007FE000410400630C603F00002E
:1011B0001F80001F80000000007000E01E00000F74
:1011C00000000F0001FFFF807FFFE00C0000060021
:1011D00000060001FFFF8000000000060900FE0677
:1011E000018902FE20FFFE07FE06FE000000060049
:1011F000070106060602008080808000800303034A
:10120000060103A0A0A00507070600FF5050F850F4
:10121000F850500509090600FE2070A8A07028A803
:1012200070200608080600FF40A84810204854080F
:101230000507070600FF609090609890680103031F
:101240000602038080800207070602FF408080803C
:101250008080400207070602FF80404040404080F7
:101260000505050600008850F850880505050600AC
:10127000002020F820200204040602FEC040408026
:10128000050101060002F8020202060200C0C004C5
:1012900006060601001010204080800406060601A4
:1012A0000060909090906003060606010040C040E8
:1012B0004040E00406060601006090102040F00463
:1012C0000606060100F020601010E0050606060084
:1012D0000010305090F810040606060100F080E07F
:1012E0001010E00406060601006080E090906004A3
:1012F0000606060100F01010204040040606060114
:101300000060906090906004060606010060909076
:10131000701060020505060200C0C000C0C00207D0
:10132000070602FEC0C000C040408005050506005B
:10133000001860806018050303060001F800F80536
:101340000505060000C0300830C00407070601008C
:10135000609010604000400506060600007090A8EE
:10136000B08070050606060000205088F8888805C1
:101370000606060000F088F08888F00406060601DC
:1013800000609080809060040606060100E0909066
:101390009090E0040606060100F080E08080F004F2
:1013A0000606060100F080E0808080040606060143
:1013B00000609080B090600406060601009090F0F6
:1013C000909090030606060100E040404040E00592
:1013D000060606000038101010906004060606018C
:1013E0000090A0C0A09090040606060100808080B6
:1013F0008080F005060606000088D8A8A888880422
:10140000060606010090D0B09090900506060600F2
:1014100000708888888870040606060100E09090B5
:10142000E080800407070601FF609090D0B0601054
:10143000040606060100E09090E09090040606067F
:101440000100609040209060050606060000F8202C
:1014500020202020040606060100909090909060C5
:10146000040606060100909090F0606005060606EE
:1014700000008888A8A8D8880506060600008850BD
:10148000202050880506060600008888502020206D
:10149000040606060100F010204080F00306060650
:1014A0000100E080808080E0040606060100808064
:1014B00040201010030606060100E020202020E056
:1014C0000503030600032050880501010600FEF80D
:1014D0000202020602048040040404060100709027
:1014E00090700406060601008080E09090E00404FD
:1014F00004060100708080700406060601001010CA
:101500007090907004040406010060B0C07004067E
:1015100006060100205040E040400406060601FE99
:101520006090907010600406060601008080E090D4
:1015300090900306060601004000C04040E003080A
:10154000080601FE200060202020A04004060606B8
:1015500001008080A0C0A090030606060100C040E4
:10156000404040E0050404060000D0A8A888040418
:1015700004060100E09090900404040601006090CD
:1015800090600406060601FEE09090E0808004066C
:10159000060601FE7090907010100404040601000D
:1015A000A0D0808004040406010070C030E004066E
:1015B000060601004040E0405020040404060100FB
:1015C00090909070040404060100909060600504FF
:1015D0000406000088A8A8500404040601009060D6
:1015E00060900406060601FE9090907090600404DE
:1015F00004060100F02040F0030707060100204028
:1016000040804040200107070602FF8080808080E4
:10161000808003070706010080404020404080048E
:10162000020206010350A0FFFFFFFFFFFFFFFFFFC5
:10163000FFFFFFFFFFFFFFFFFFFFFFFFFFFFFFFFBA
:10164000FFFFFFFFFFFFFFFF00000006000701068E
:10165000060602008000808080800406060601FFE6
:101660002070A0A070200507070600FF304840F05A
:101670004040F8050505060000A8508850A805065A
:10168000060600008850F820F8200107070602FF30
:10169000808080008080800407070601FF708060E2
:1016A000906010E0030101060105A006070706008F
:1016B00000788494A494847803050506010160A051
:1016C0006000E00505050600002850A0502804032E
:1016D00003060100F01010040101060102F00607E4
:1016E000070600007884B4A4A484780401010601EC
:1016F00005F0040303060102609060050707060079
:10170000FF2020F8202000F803050506010140A075
:101710002040E0030505060101C0204020C0020270
:101720000206020440800405050601FF9090B0D037
:101730008005060606000078E8E86828280101010F
:10174000060202800202020602FE40800305050630
:10175000010140C04040E003050506010140A040F2
:1017600000E0050505060000A0502850A005080867
:101770000600FF40C0405070307810050808060091
:10178000FF40C04050680810380508080600FFC038
:10179000204030F0307810040707060100200020B8
:1017A0006080906005070706000040202050708888
:1017B000880507070600001020205070888805075C
:1017C0000706000020502050708888050707060093
:1017D0000028502050708888050707060000500038
:1017E00020507088880507070600002050205070A0
:1017F000888805060606000078A0F0A0A0B80408B6
:10180000080601FE60908080906020400407070673
:1018100001004020F080E080F0040707060100206E
:1018200040F080E080F00407070601002050F080BF
:10183000E080F00407070601005000F080E080F02F
:101840000307070601008040E0404040E00307072F
:101850000601002040E0404040E003070706010089
:1018600040A0E0404040E0030707060100A000E080
:10187000404040E00506060600007048E848487011
:1018800004070706010050A090D0B090900407070D
:101890000601004020609090906004070706010058
:1018A000204060909090600407070601002050607F
:1018B0009090906004070706010050A060909090FF
:1018C00060040707060100500060909090600505D5
:1018D0000506000088502050880408080601FF1003
:1018E00070B0B0D0D0E0800407070601004020901F
:1018F000909090600407070601002040909090901F
:101900006004070706010020509090909060040743
:1019100007060100500090909090600507070600B0
:10192000001020885020202004060606010080E0D8
:101930009090E0800406060601006090A0A090A0B0
:10194000040707060100402000709090700407070C
:101950000601002040007090907004070706010007
:101960002050007090907004070706010050A000FE
:101970007090907004060606010050007090907000
:1019800004070706010020502070909070050404A1
:1019900006000070A8B0780406060601FE7080807C
:1019A00070204004070706010040200060B0C070AE
:1019B00004070706010020400060B0C0700407075C
:1019C00006010020500060B0C07004060606010049
:1019D000500060B0C070030707060100804000C0DF
:1019E0004040E0030707060100204000C04040E0FF
:1019F00003070706010040A000C04040E0030606C0
:101A0000060100A000C04040E004070706010030C6
:101A100060107090906004070706010050A000E07D
:101A200090909004070706010040200060909060AD
:101A3000040707060100204000609090600407073B
:101A40000601002050006090906004070706010026
:101A500050A00060909060040606060100500060EF
:101A60009090600505050600002000F800200404A1
:101A70000406010070B0D0E0040707060100402012
:101A8000009090907004070706010020400090909D
:101A90009070040707060100205000909090700499
:101AA0000606060100500090909070040909060196
:101AB000FE2040009090907090600408080601FE9F
:101AC0008080E09090E080800408080601FE5000CD
:101AD0009090907090604D756F766920417373653A
:101AE000004D38300053776974636820506F776514
:101AF00072204F6E004D383100537769746368204F
:101B0000506F776572204F66660047393220583033
:101B1000205930205A3000496D706F737461204F26
:101B2000726967696E65004733310050617263689E
:101B3000656767696F00473238004175746F2048E8
:101B40006F6D65004D3834004469736162696C697A
:101B50007461204D6F746F7269004D656E752070F1
:101B600072696E636970616C650000002100240079
:101B700027002A002D00300033000101000004017D
:101B800007010A0100002200250028002B002E007A
:101B90003100340002010000050108010B010000C2
:101BA00020002300260029002C002F003200000115
:101BB00000000301060109010505050507050808E0
:101BC0000808020202020A0A0808040404040101C7
:101BD00001010101010103030303030303030407DC
:101BE00007070C0C0C0C0C0C0C0C02020202060673
:101BF0000606060606060B0B0B0B0B0B0B0B010266
:101C0000102020080810204010204080020102010E
:101C100008040201010204081020408080402010C6
:101C2000080402018004020180402010080402011F
:101C30000804020101020408102040800102040887
:101C40001020408000000A0B02090C0D0E0807034B
:101C5000040100000000000000000000000000007F
:101C60000000000000000000000000000000000074
:101C70001211100000000000000000000000000031
:101C80000000000000000000000053657474696EDD
:101C900067732053746F7265640048617264636F88
:101CA0006465642044656661756C74205365747462
:101CB000696E6773204C6F61646564006563686F6B
:101CC0003A007C3C3E5E2B3D3F2F5B5D3B2C2A2245
:101CD0005C000253637269747475726120737520BD
:101CE00066696C653A20002E0046616C6C6974610F
:101CF000206C2761706572747572612064656C2058
:101D000046696C653A20002E0046616C6C6974610E
:101D1000206C2761706572747572612064656C2037
:101D200046696C653A200046696C652073656C6590
:101D30007A696F6E61746F002044696D656E7369B6
:101D40006F6E653A200046696C652061706572743B
:101D50006F3A20002E0046616C6C697461206C271C
:101D600061706572747572612064656C2046696C7F
:101D7000653A20004E6F7720667265736820666949
:101D80006C653A20004E6F7720646F696E6720663D
:101D9000696C653A20002220706F73002220706108
:101DA00072656E743A2200535542524F5554494E53
:101DB000452043414C4C207461726765743A22009F
:101DC000747279696E6720746F2063616C6C207324
:101DD00075622D67636F64652066696C6573207733
:101DE00069746820746F6F206D616E79206C657600
:101DF000656C732E204D4158206C6576656C2069AA
:101E0000733A004D3234004D323320257300496D52
:101E1000706F73736962696C6520656E747261724C
:101E200065206E656C6C6120736F74746F63617292
:101E300074656C6C613A2000F92E2E004D656E754C
:101E4000207072696E636970616C650024F4D4302F
:101E500050C38E20C2A24017828B7011127A910D4E
:101E6000816CD90AA861E108C75866076151430629
:101E70001E4B5D05C145A7041A411104093D980395
:101E8000713931034036DB0265339102D43054029C
:101E9000802E1D02632CEE01752AC501B028A00119
:101EA000102781018F2564012B244B01E02234018E
:101EB000AC211F018D200D01801FFC00841EED0050
:101EC000971DDF00B81CD200E61BC600201BBC001B
:101ED000641AB200B219A8000A19A0006A18990081
:101EE000D117910040178B00B516840031167E0083
:101EF000B31579003A157300C7146F0058146A00BF
:101F0000EE1366008813630025135E00C7125B00A2
:101F10006C12570015125400C111510070114F007E
:101F200021114B00D61049008D1047004610440087
:101F300002104200C00F4000800F3E00420F3C00E4
:101F4000060F3B00CB0E3800930E37005C0E3500B9
:101F5000270E3400F30D3200C10D3100900D30001A
:101F6000600D2E00320D2D00050D2C00D90C2B001C
:101F7000AE0C2900850C29005C0C2700350C2700CD
:101F80000E0C2600E80B2400C40B2400A00B230039
:101F90007D0B23005A0B2100390B2100180B200068
:101FA000F80A1F00D90A1E00BB0A1E009D0A1D0068
:101FB000800A1D00630A1C00470A1B002C0A1B0034
:101FC000110A1A00F7091A00DD091900C4091900DD
:101FD000AB091900920917007B0918006309170063
:101FE0004C09160036091600200916000A091500CA
:101FF000F5081500E0081400CC081400B808140017
:10200000A4081400900813007D0812006B08130048
:102010005808120046081200340811002308110065
:102020001208110001081100F0071000E00710006D
:10203000D0071000C0071000B0070F00A107100064
:1020400091070E0083070F0074070F0065070E004D
:1020500057070E0049070E003B070D002E070E0024
:1020600020070D0013070D0006070D00F9060C00F0
:10207000ED060D00E0060C00D4060C00C8060C00AE
:10208000BC060C00B0060C00A4060B0099060C0060
:102090008D060B0082060B0077060B006C060B000A
:1020A00061060A0057060B004C060A0042060A00A9
:1020B00038060A002E060A0024060A001A060A003C
:1020C0001006090007060A00FD050900F4050900CD
:1020D000EB050900E2050900D9050900D005090052
:1020E000C7050900BE050900B5050800AD050800D3
:1020F000A50509009C050800940508008C0508004A
:10210000840508007C050800740508006C050700BC
:10211000650508005D050700560508004E05070027
:10212000470507004005080038050700310507008E
:102130002A050700230507001C05060016050700F1
:102140000F0507000805060002050700FB0406004E
:10215000F5040700EE040600E8040600E2040700A8
:10216000DB040600D5040600CF040600C9040600FF
:10217000C3040600BD040600B7040600B104050050
:10218000AC040600A6040600A00405009B0406009B
:1021900095040500900406008A04050085040500E6
:1021A000800406007A04050075040500700405002B
:1021B0006B04050066040500610405005C0405006D
:1021C00057040500520405004D04050048040500AD
:1021D000430405003E0404003A04050035040500EC
:1021E000300404002C040500270404002304050027
:1021F0001E0404001A04040016040500110404005F
:102200000D04040009040500040404000004040093
:10221000FC030400F8030400F4030400F0030400CA
:10222000EC030400E8030400E4030400E0030400FA
:10223000DC030400D8030400D4030400D00304002A
:10224000CC030400C8030300C503030024F404D92D
:10225000201BC40C5C0E9804C4095F026507710161
:10226000F405F900FB04B30048048700C1036900CA
:102270005803550003034500BE023A0084023100B2
:1022800053022A002902250004022000E4011C0058
:10229000C8011900AF011700980114008401130050
:1022A000710110006101100051010E0043010D0089
:1022B00036010B002B010B0020010B00150109005A
:1022C0000C01090003010800FB000800F3000800EE
:1022D000EB000700E4000600DE000600D800060060
:1022E000D2000600CC000500C7000500C2000500B2
:1022F000BD000400B9000400B5000400B1000400F2
:10230000AD000400A9000400A5000300A200030022
:102310009F0004009B00030098000300950002004A
:1023200093000300900003008D0002008B00030067
:102330008800020086000200840003008100020081
:102340007F0002007D0002007B0002007900020095
:1023500077000100760002007400020072000100A4
:10236000710002006F0002006D0001006C000200AD
:102370006A000100690002006700010066000100B8
:1023800065000100640002006200010061000100BC
:10239000600001005F0002005D0001005C000100C0
:1023A0005B0001005A0001005900010058000100C3
:1023B00057000100560001005500010054000100C3
:1023C00053000000530001005200010051000100C1
:1023D000500001004F0001004E0000004E000100BF
:1023E0004D0001004C0001004B0000004B000100BB
:1023F0004A000100490001004800000048000100B7
:1024000047000100460000004600010045000000B2
:1024100045000100440001004300000043000100AA
:1024200042000000420001004100000041000100A4
:10243000400001003F0000003F0001003E0000009E
:102440003E0001003D0000003D0001003C00000096
:102450003C0000003C0001003B0000003B0001008C
:102460003A0000003A000100390000003900010084
:10247000380000003800000038000100370000007C
:102480003700010036000000360000003600010071
:102490003500000035000000350001003400000068
:1024A000340000003400010033000000330000005D
:1024B0003300010032000000320000003200010051
:1024C0003100000031000000310001003000000048
:1024D00030000000300001002F0000002F0000003D
:1024E0002F0000002F0001002E0000002E00000031
:1024F0002E0001002D0000002D0000002D00000026
:102500002D0001002C0000002C0000002C00000019
:102510002C0001002B0000002B0000002B0000000D
:102520002B0001002A0000002A0000002A00000001
:102530002A000100290000002900000029000000F5
:1025400029000000290001002800000028000000E8
:1025500028000000280000002800010027000000DB
:1025600027000000270000002700000027000100CE
:1025700026000000260000002600000026000000C3
:1025800026000100250000002500000025000000B5
:1025900025000000250000002500010024000000A7
:1025A000240000002400000024000000240001009A
:1025B000230000002300000023000000230000008F
:1025C000230000002300000023000100220000007F
:1025D0002200000022000000220000002200000073
:1025E0002200010021000000210000002100000065
:1025F0002100000021000000210000002100010056
:10260000200000002000000020000000200000004A
:102610002000000020000000200000002000010039
:102620001F0000001F0000001F0000001F0000002E
:102630001F0000001F0000001F0001001E0000001E
:102640001E0000001E0000001E000000466F6375A3
:1026500073004D3500446973617474697661206C50
:1026600061736572004D3320533000417474697694
:1026700061206C61736572004D3131005370656784
:102680006E69206C61736572004D313020533000EB
:10269000416363656E6469206C61736572004D65AA
:1026A0006E75207072696E636970616C650053614C
:1026B0006C766120696E20454550524F4D00473978
:1026C00032205A30005365747461206F66667365FA
:1026D00074004D756F76692066756F636F004732C1
:1026E00038205A00417A7A657261206173736520DF
:1026F0005A005A65726F206F6666736574004D6587
:102700006E75207072696E636970616C6500496DE9
:10271000706F7374617A2E2064656661756C7400E5
:1027200043617269636120646120454550524F4D99
:102730000053616C766120696E20454550524F4DC3
:10274000004C434420636F6E7472617374004D6F6C
:1027500076696D656E746F004D656E752070726977
:102760006E636970616C65006F6B0055434349533C
:102770004F2E20005374616D70616E74652043614B
:102780006C64612E206B696C6C2829206368696118
:102790006D617461202121000000824300003443F8
:1027A00000000042000000000000000000000000E7
:1027B0000000000000000000000000000000A04039
:1027C0000000A0400000803F00008243000034432E
:1027D00000000042FFFFFF2200656E717565696EA3
:1027E0006720220001050800FF060121023520FFB5
:1027F000FF07FF06FF0900502216568080808000E8
:1028000080153353A0A0A00257575050F850F850ED
:10281000500257572070A07028702013355580A0A3
:1028200040A02002475740A0A040A0A0502513532D
:1028300080808012265640808080804012265680FC
:1028400040404040800245559060F06090025555F0
:102850002020F82020113353604080044151F011B2
:10286000335340E04002465610102040808012361C
:102870005640A0A0A0A04012365640C0404040E0C4
:102880000246566090106080F0024656F0206010BC
:1028900090600246562060A0F02020024656F0804C
:1028A000E01090600246566080E0909060024656CC
:1028B000F0102020404002465660906090906002E8
:1028C0004656609090701060122555C0C000C0C080
:1028D000113656606000604080123656204080807D
:1028E0004020034353F000F0123656804020204031
:1028F0008012365640A02040004001585830489879
:10290000A8A8904030024656609090F09090024601
:1029100056E090E09090E002465660908080906093
:10292000024656E090909090E0024656F080E0809B
:1029300080F0024656F080E080808002465660902B
:1029400080B090600246569090F09090901236566B
:10295000E040404040E002465670202020A0400267
:10296000465690A0C0A0A0900246568080808080ED
:10297000F002465690F0F090909002465690D0F0BB
:10298000B0B090024656609090909060024656E03B
:102990009090E08080014757609090D0B060100226
:1029A0004656E09090E0909002465660904020900D
:1029B00060123656E04040404040024656909090AB
:1029C00090906002465690909090606002465690BB
:1029D0009090F0F090024656909060609090025671
:1029E00056888850202020024656F010204080F063
:1029F000123656E080808080E0024656808040207B
:102A00001010123656E020202020E016325240A04E
:102A1000014151F01622528040024454709090704F
:102A20000246568080E09090E012345460808060CE
:102A300002465610107090907002445460B0C0600E
:102A4000024656205040E0404001455560907010CD
:102A5000600246568080E09090901236564000C04A
:102A60004040E01137572000202020A04002465669
:102A7000808090E09090123656C040404040E00286
:102A80005454D0A8A8A8024454E090909002445412
:102A900060909060014555E090E080800145557060
:102AA00090701010024454A0D0808012345460C042
:102AB00020C00246564040E04050200244549090CE
:102AC0009070123454A0A0A04002545488A8A8507A
:102AD000024454906060900145559090709060025F
:102AE0004454F02040F0024757304020C02040308E
:102AF000221656808080808080024757C020403058
:102B00004020C006425250A0FFFFFFFFFFFFFFFF23
:102B1000FFFFFFFFFFFFFFFFFFFFFFFFFFFFFFFFC5
:102B2000FFFFFFFFFFFFFFFFFF0900502216568047
:102B300000808080800146562070A0A07020024650
:102B4000562050E04050A0025555887050708802C1
:102B500056568850F820F820221757808080008031
:102B600080800247577080E0907010E0173151A0CC
:102B700002565670A8C8C8A87014355560A06000E9
:102B8000E003435350A050123353E020201431513E
:102B9000E002565670E8D8E8D870173151E0153386
:102BA0005340A04012355540E04000E014355540F8
:102BB000A02040E0143555C020C020C0162252404D
:102BC00080014555909090E08002565678E8E8687C
:102BD000282824115180112252408014355540C0BC
:102BE0004040E014355540A04000E0034353A0505E
:102BF000A0024757808080A060F020024757808065
:102C0000A0D010207002475780408060A0F02012B2
:102C1000365640004080A04002475740206090F068
:102C2000909002475720406090F090900247576084
:102C3000906090F0909002475750A06090F0909074
:102C400002475790006090F0909002475760906064
:102C500090F0909002465670A0A0F0A0B0014757A7
:102C6000609080809060400247574020F080E08074
:102C7000F00247572040F080E080F0024757609014
:102C8000F080E080F00247579000F080E080F01282
:102C900037578040E0404040E01237572040E04046
:102CA0004040E012375740A0E0404040E012375724
:102CB000A000E0404040E00256567048E8484870A6
:102CC00002475750A090D0B09090024757402060E4
:102CD000909090600247572040609090906002472B
:102CE000576090609090906002475750A06090901D
:102CF000906002475790006090909060123353A00C
:102D000040A002465670B0B0D0D0E00247574020F5
:102D10009090909060024757204090909090600271
:102D20004757609090909090600247579000909025
:102D3000909060025757102088502020200246565D
:102D400080E09090E0800246566090A0A090A002A3
:102D50004757402000709090700247572040007005
:102D60009090700247572050007090907002475723
:102D700050A0007090907002465650007090907075
:102D800002475760906070909070025454F068B0A1
:102D900078113555608080604002475740200060C0
:102DA000B0C06002475720400060B0C06002475783
:102DB00060900060B0C060024656500060B0C060D5
:102DC000123757804000C04040E012375720400083
:102DD000C04040E012375740A000C04040E01236EB
:102DE00056A000C04040E0024757A040A01070909D
:102DF0006002475750A000E0909090024757402053
:102E00000060909060024757204000609090600200
:102E100047576090006090906002475750A0006054
:102E20009090600246569000609090601235554038
:102E300000E0004002445470B0D0E0024757402008
:102E40000090909070024757204000909090700240
:102E50004757609000909090700246569000909076
:102E60009070014858204000909070906001475742
:102E70008080E090E08080014757900090907090B3
:102E800060FFFFFFC005FFFFFFFFFFFC00003FFFEB
:102E9000FFFFFFE0000007FFFFFFFF80000001FFD2
:102EA000FFFFFE002FF8007FFFFFFC01FFFF803FC8
:102EB000FFFFF00FFFFFF00FFFFFE03FF7EFFC0712
:102EC000FFFFC0FFF7F7FE03FFFF81FF67F2FF81FF
:102ED000FFFF03FFA7E6FFC0FFFE07FF27E6FFF0A7
:102EE0007FFC0FFF33E47FF03FF81FDF63E67DFCDC
:102EF0001FF83FBE31C67DFC1FF07FBE71873EFECE
:102F00000FE0FF3C71871C7F07E0FF38F0871E7FD2
:102F100007C1FF38E1871C7F83C3FA1861870C6FF4
:102F2000C383FB1841C2085FC187FC0801C0085F6A
:102F3000C187F90803C0184FE107F9080180184F4D
:102F4000E00FF10C0000184FF00FE31C00001847D1
:102F5000F00FE30C000018E3F01FC3000000006353
:102F6000F00FC70000000061F81FC30000000061FF
:102F7000F81FC00000000001F81FC000000000039F
:102F8000F81FC00000000003F81FE000000000036D
:102F9000F81FE00000000003F81FE0000000000739
:102FA000F81FF00000000007F00FF0A00000050778
:102FB000F81FE0FF00007F83F00FE0FFC001FF83F8
:102FC000F00FE07FE007FF07F00FF03FF80FFE077C
:102FD000F007F81FFC1FF80FE087F807FC3FF01F11
:102FE000E187FC01FE3F803FE183FF000000007F9E
:102FF000C1C1FF80008001FFC3C1FFF001C007FF16
:1030000083E1FFF803C01FFF07E0FFFE03E03FFF7F
:1030100007F07FFC03E03FFE0FF83FFC06201FFC9B
:103020001FF81FFC00001FF81FFC0FF800000FF036
:103030003FFE0FF800001FE07FFF03F880010FC084
:10304000FFFF81FC84119F81FFFFC07EC410BE037F
:10305000FFFFE03FCC13FC07FFFFF007FEFFF00F80
:10306000FFFFFC01FFFF803FFFFFFE001FF4007F1A
:10307000FFFFFF80000001FFFFFFFFE0000007FFF0
:10308000FF00000000000000000000000000000041
:103090000000000000000000000000000000000030
:1030A0000000000000000000000000000000000020
:1030B0000000000000000000000000000000000010
:1030C000091200FC0A01E803D720FFFD0EFD0BFDED
:1030D00000000009000E010B0B09040080808080B5
:1030E0008080800000808004040409030790909091
:1030F00090080A0A090000242424FF2424FF242421
:1031000024070B0B0901FF107C9290503814129287
:103110007C10070A0A09010042A4A4481010244A9E
:103120004A84070A0A0901006090909060629488BE
:10313000946201040409040780808080030C0C0958
:1031400003FF204040808080808080404020030C2E
:103150000C0903FF80404020202020202040408098
:103160000707070901031092543854921007070704
:10317000090101101010FE1010100204040904FED1
:10318000C0C04080070101090104FE0202020904D7
:1031900000C0C0070A0A0901000204040810102038
:1031A000404080070A0A09010038448282828282F4
:1031B000824438070A0A090100103050901010109C
:1031C0001010FE070A0A09010038448202040810A0
:1031D0002040FE070A0A090100FE02040818040242
:1031E000028478070A0A090100040C14244484FEAE
:1031F000040404070A0A090100FE808080F8040222
:10320000028478070A0A0901003C408080B8C48221
:10321000824438070A0A090100FE02040408081063
:10322000101010070A0A0901003844824438448209
:10323000824438070A0A09010038448282463A0269
:10324000020478020707090400C0C0000000C0C0E3
:103250000209090904FEC0C0000000C0C04080058A
:1032600009090902000810204080402010080704C6
:1032700004090102FE0000FE050909090200804060
:1032800020100810204080070A0A090100384482F3
:1032900002040810100010070A0A09010038449AB5
:1032A000AAAAAAAA9C403C070A0A090100102828D9
:1032B00028447C44828282070A0A090100F8848239
:1032C00084F884828284F8070A0A0901003C42805B
:1032D0008080808080423C070A0A090100F88482CD
:1032E000828282828284F8070A0A090100FE8080B5
:1032F00080F880808080FE070A0A090100FE808035
:1033000080F88080808080070A0A090100384482A2
:1033100080808E82824438070A0A090100828282F4
:1033200082FE8282828282050A0A090200F8202037
:10333000202020202020F8070A0A0901003E080862
:1033400008080808888870070A0A0901008284882A
:1033500090A0D088848282070A0A090100808080B8
:10336000808080808080FE070A0A0901008282C670
:10337000AA928282828282070A0A0901008282C29C
:10338000A2928A86828282070A0A0901007C8282CE
:103390008282828282827C070A0A090100F8848282
:1033A0008284F880808080080B0B0901FF384482FA
:1033B000828282828A443A01070A0A090100F8845B
:1033C000828284F890888482070A0A0901007C823C
:1033D00080807C020202827C070A0A090100FE103A
:1033E0001010101010101010070A0A090100828234
:1033F0008282828282824438070A0A09010082821C
:103400008244444428282810070A0A0901008282BD
:10341000828292929292AA44070A0A090100828249
:103420004428101028448282070A0A090100828277
:103430004428101010101010070A0A090100FE029B
:1034400004081020408080FE040C0C0903FFF0806B
:10345000808080808080808080F0070A0A090100D7
:1034600080404020101008040402040C0C0902FFE4
:10347000F010101010101010101010F007040409B4
:103480000106102844820801010900FFFF0303031D
:1034900009030A8040200707070901007C02027E19
:1034A00082867A070A0A090100808080BCC2828273
:1034B00082C2BC0707070901007C82808080827C71
:1034C000070A0A0901000202027A86828282867A4B
:1034D0000707070901007C8282FE80827C070A0AB6
:1034E0000901001C22222020F820202020070A0A9F
:1034F0000901FD7A84848478807C82827C070A0AB0
:10350000090100808080BCC28282828282050A0A10
:10351000090200600000E02020202020F8050D0DA9
:103520000902FD1800003808080808080888887093
:10353000070A0A090100808080848890B0C88482CC
:10354000050A0A090200E02020202020202020F87F
:10355000070707090100EC929292929282070707EF
:10356000090100BCC282828282820707070901002A
:103570007C82828282827C070A0A0901FDB8C482A9
:103580008282C4B8808080070A0A0901FD3A468217
:103590008282463A0202020707070901009C624242
:1035A000404040400707070901007C82807C02827E
:1035B0007C0709090901002020FC20202020221C72
:1035C0000707070901008282828282867A0707073D
:1035D00009010082824444282810070707090100D6
:1035E0008282929292AA4407070709010082442826
:1035F00010284482070A0A0901FD424224242418A3
:1036000018109060070707090100FE040810204009
:10361000FE060B0B0902001C20202020C0202020C9
:10362000201C010C0C0904FF808080808080808039
:1036300080808080060B0B090100E0101010100C38
:1036400010101010E007030309010762928CFFFFBE
:10365000FFFFFFFFFFFFFFFFFFFFFFFFFFFFFFFF7A
:10366000FFFFFFFFFFFFFFFFFFFFFFFFFFFFFF0069
:10367000000009000E010B0B09040080800000808F
:103680008080808080800608080901000878949076
:10369000A0A47840070A0A0901001C222020F82073
:1036A0002060A25C070606090103827C44447C82F8
:1036B000070A0A090100828244287C107C1010103D
:1036C000010B0B0904FF8080808080008080808057
:1036D00080040B0B0902FF60908060909090601056
:1036E000906003020209030BA0A008090909000168
:1036F0003C4299A5A1A599423C0507070901036031
:103700009070907800F80708080901011224489089
:1037100090482412060404090102FC040404050173
:1037200001090204F80809090900013C42B9A5BDD4
:10373000A9A5423C060101090109FC04040409038E
:103740000660909060070909090101101010FE1031
:10375000101000FE0406060901046090106080F05D
:103760000406060901046090201090600303030919
:10377000030A2040800709090901FE8282828282B1
:10378000C6BA8080070A0A0901007E8A8A8A7A0AF4
:103790000A0A0A0A020202090404C0C00403030957
:1037A00002FD20906003060609010440C04040402D
:1037B000E00506060901047088887000F80708080B
:1037C0000901019048241212244890070A0A0901AD
:1037D0000040C0404042E60A121A06070A0A0901E0
:1037E0000040C040404CF2020C101E070A0A0901BA
:1037F000006090201092660A121A06070A0A090150
:10380000001000101020408082827C070E0E0901FB
:10381000002010080010282828447C448282820757
:103820000E0E0901000810200010282828447C44AE
:10383000828282070E0E09010010284400102828F9
:1038400028447C44828282070D0D0901003458000F
:1038500010282828447C44828282070D0D0901002B
:1038600028280010282828447C44828282070E0ED3
:103870000901001028281010282828447C4482823E
:1038800082070A0A0901001E2828284E78488888DD
:103890008E070D0D0901FD3C4280808080808042B2
:1038A0003C082418070E0E09010020100800FE80B5
:1038B0008080F880808080FE070E0E0901000810CD
:1038C0002000FE808080F880808080FE070E0E0938
:1038D000010010284400FE808080F880808080FEF7
:1038E000070D0D090100282800FE808080F88080E7
:1038F0008080FE050E0E09020040201000F82020F6
:10390000202020202020F8050E0E09020010204063
:1039100000F82020202020202020F8050E0E09028B
:103920000020508800F82020202020202020F805AA
:103930000D0D090200505000F820202020202020EA
:1039400020F8070A0A09010078444242F242424242
:103950004478070D0D0901003458008282C2A292FA
:103960008A86828282070E0E090100201008007CE0
:1039700082828282828282827C070E0E0901000886
:103980001020007C82828282828282827C070E0EDC
:10399000090100102844007C828282828282828215
:1039A0007C070D0D0901003458007C8282828282DE
:1039B0008282827C070D0D0901002828007C82820A
:1039C0008282828282827C07070709010182442861
:1039D00010284482070C0C0901FF027C868A8A9217
:1039E00092A2A2C27C80070E0E09010020100800DE
:1039F00082828282828282824438070E0E0901000E
:103A00000810200082828282828282824438070EDD
:103A10000E09010010284400828282828282828202
:103A20004438070D0D090100282800828282828215
:103A30008282824438070E0E09010008102000829D
:103A4000824428101010101010070A0A0901008083
:103A500080FC828282FC808080060A0A090100388C
:103A6000444448D04844444458070B0B0901002003
:103A70001008007C02027E82867A070B0B09010087
:103A8000081020007C02027E82867A070B0B090157
:103A900000102844007C02027E82867A070A0A0906
:103AA00001003458007C02027E82867A070A0A09E5
:103AB00001002828007C02027E82867A070C0C090D
:103AC000010010282810007C02027E82867A0707F7
:103AD000070901006C12127E90926C070A0A090114
:103AE000FD7C82808080827C104830070B0B0901AE
:103AF00000201008007C8282FE80827C070B0B096C
:103B00000100081020007C8282FE80827C070B0B63
:103B1000090100102844007C8282FE80827C070A12
:103B20000A0901002828007C8282FE80827C050C24
:103B30000C0902008040200000E02020202020F816
:103B4000050C0C0902001020400000E0202020207D
:103B500020F8050C0C0902002050880000E020200D
:103B6000202020F8050B0B09020050500000E02037
:103B700020202020F8070B0B090100483050083C9A
:103B8000448282824438070A0A090100345800BC82
:103B9000C28282828282070B0B090100201008007A
:103BA0007C82828282827C070B0B09010008102034
:103BB000007C82828282827C070B0B090100102824
:103BC00044007C82828282827C070A0A09010034D6
:103BD00058007C82828282827C070A0A09010028BE
:103BE00028007C82828282827C07090909010010F8
:103BF000381000FE001038100709090901FF027C87
:103C00008A8A92A2A27C80070B0B09010040201037
:103C1000008282828282867A070B0B0901000810DB
:103C200020008282828282867A070B0B09010010B3
:103C30002844008282828282867A070A0A09010069
:103C40002828008282828282867A070E0E0901FD70
:103C50000408100042422424241818109060070B16
:103C60000B0901FE8080B8C4828282C4B8808007BC
:103C70000D0D0901FD2424004242242424181810AB
:103C80009060580059005A004D6F7665205A004DDB
:103C90006F76652059004D6F76652058004D756F21
:103CA00076692041737365004D3234004D32332004
:103CB0002573006175746F25692E67005344206376
:103CC000617264206F6B0046616C6C697461206C7A
:103CD0002761706572747572612043617274656CDE
:103CE0006C61205072696E636970616C6500466139
:103CF0006C6C69746F20696C206D6F6E746167679E
:103D0000696F2064656C20566F6C756D6500457237
:103D1000726F723A0046616C6C69746120496E6919
:103D20007A69616C697A7A617A696F6E6520534449
:103D3000006563686F3A005A004D6F766520302E3B
:103D4000316D6D004D6F766520316D6D004D756F75
:103D500076692041737365004D6F766520302E3192
:103D60006D6D004D6F766520316D6D004D6F766520
:103D70002031306D6D005072657061726100000617
:103D80000900FE070199032B20FFFE08FE07FE0035
:103D90000000060000010707060200808080808086
:103DA0000080030303060104A0A0A0050707060086
:103DB000005050F850F850500507070600002070DA
:103DC000A07028702005070706000048A850205062
:103DD000A89005070706000040A0A040A890680131
:103DE00003030602048080800307070601002040C9
:103DF00080808040200307070601008040202020AB
:103E000040800505050600018850F8508805050525
:103E10000600012020F820200303030601FF604074
:103E200080050101060003F80303030601FF40E0DB
:103E3000400507070600000808102040808005079D
:103E400007060000205088888850200507070600D4
:103E5000002060A0202020F80507070600007088D9
:103E600008304080F8050707060000F80810300801
:103E7000887005070706000010305090F8101005F4
:103E80000707060000F880B0C80888700507070615
:103E90000000304080B0C88870050707060000F8B1
:103EA0000810102040400507070600007088887041
:103EB00088887005070706000070889868081060F9
:103EC0000307070601FF40E0400040E0400307070A
:103ED0000601FF40E0400060408004070706010043
:103EE00010204080402010050303060002F800F86F
:103EF00004070706010080402010204080050707C6
:103F0000060000708810202000200507070600002A
:103F1000708898A8B08070050707060000205088B8
:103F200088F88888050707060000F0484870484868
:103F3000F0050707060000708880808088700507FC
:103F400007060000F04848484848F0050707060003
:103F500000F88080F08080F8050707060000F880F0
:103F600080F08080800507070600007088808098B8
:103F70008870050707060000888888F88888880305
:103F80000707060100E04040404040E00507070603
:103F90000000381010101090600507070600008818
:103FA00090A0C0A090880507070600008080808050
:103FB0008080F80507070600008888D8A8888888C8
:103FC0000507070600008888C8A89888880507079D
:103FD000060000708888888888700507070600003A
:103FE000F08888F08080800508080600FF708888C7
:103FF0008888A87008050707060000F08888F0A0E8
:104000009088050707060000708880700888700592
:104010000707060000F820202020202005070706BB
:10402000000088888888888870050707060000884F
:10403000888850505020050707060000888888A807
:10404000A8D888050707060000888850205088886F
:104050000507070600008888502020202005070754
:10406000060000F80810204080F80307070601004A
:10407000E08080808080E0050707060000808040A7
:1040800020100808030707060100E0202020202058
:10409000E00503030600042050880501010600FF27
:1040A000F8020202060206804005050506000070BF
:1040B000087888780507070600008080B0C888C89F
:1040C000B0050505060000708880887005070706A2
:1040D00000000808689888986805050506000070C3
:1040E00088F88070050707060000304840F040401F
:1040F000400507070600FE7888887808887005075D
:10410000070600008080B0C888888803070706017A
:10411000004000C0404040E00409090601FE1000D4
:10412000301010109090600507070600008080880E
:1041300090E09088030707060100C04040404040DF
:10414000E0050505060000D0A8A8A8880505050615
:104150000000B0C8888888050505060000708888BA
:1041600088700507070600FEB0C888C8B0808005C3
:1041700007070600FE689888986808080505050680
:104180000000B0C8808080050505060000708070C2
:1041900008F00507070600004040F04040483005A1
:1041A0000505060000888888986805050506000052
:1041B00088885050200505050600008888A8A8506A
:1041C00005050506000088502050880507070600F1
:1041D000FE88889868088870050505060000F810B4
:1041E0002040F8040707060100304020C02040307E
:1041F0000107070602008080808080808004070716
:10420000060100C02040304020C005030306000422
:1042100048A890000000010000000000010000001C
:10422000000001000000000001000000000001008B
:10423000000000000100000000000100000000007C
:10424000010000000000010000000000010000006B
:10425000000001000000000001000000000001005B
:10426000000000000100000000000100000000004C
:10427000010000000000010000000000010000003B
:10428000000001000000000001000000000001002B
:10429000000000000100000000000100000000001C
:1042A000010000000000010000000000010000000B
:1042B00000000100000000000100000000000100FB
:1042C00000000000010000000000010000000000EC
:1042D00001000000000001000000000006000001D5
:1042E000070706020080008080808080050707069F
:1042F00000FF2078A0A0A078200507070600003066
:104300004840E04048B00505050600008870507040
:10431000880508080600FF88885020F82020200122
:10432000070706020080808000808080050808065C
:1043300000FF7080E0904838087003010106010713
:10434000A00507070600007088A8C8A888700406A2
:10435000060601017090B05000F006050506000049
:104360002448904824040202060102F010040101CE
:10437000060103F00507070600007088E8C8C88832
:1043800070050101060007F803030306010440A0BD
:10439000400506060600002020F82020F804050548
:1043A00006010360902040F0040505060103E010BB
:1043B0006010E002020206020640800506060600C2
:1043C000FF888888C8B08005070706000078E8E8FD
:1043D0006828282801010106020380020202060261
:1043E000FE408003050506010340C04040E004068E
:1043F000060601016090906000F0060505060000C9
:1044000090482448900609090600FF40C04040E457
:104410000C143C040609090600FF40C04040E814A3
:1044200004081C0509090600FFC0204020C8182800
:104430007808050707060000200020204088700546
:1044400008080600004020708888F8888805080859
:104450000600001020708888F88888050808060083
:10446000002050708888F8888805080806000048F1
:10447000B0708888F8888805080806000050007029
:104480008888F88888050808060000205070888809
:10449000F888880607070600003C50909CF0909C26
:1044A0000509090600FE708880808088702040051C
:1044B000080806000040F88080F08080F8050808B1
:1044C00006000010F88080F08080F80508080600DB
:1044D0000020F88080F08080F80508080600005071
:1044E000F88080F08080F80308080601008040E032
:1044F00040404040E00308080601002040E0404002
:104500004040E003080806010040A0E04040404071
:10451000E0030808060100A000E040404040E0053C
:104520000707060000F04848E84848F00508080674
:104530000000285088C8A898888805080806000048
:1045400040207088888888700508080600001020C0
:1045500070888888887005080806000020507088D8
:1045600088888870050808060000285070888888A8
:1045700088700508080600005000708888888870D8
:10458000050505060000885020508805070706002D
:1045900000709898A8C8C870050808060000402058
:1045A0008888888888700508080600001020888898
:1045B00088888870050808060000205000888888D0
:1045C0008870050808060000500088888888887070
:1045D00005080806000010208888502020200507C4
:1045E0000706000080F088F080808005070706003D
:1045F00000708890A09088B0050808060000402050
:1046000000700878887805080806000010200070FF
:10461000087888780508080600002050007008789F
:104620008878050808060000285000700878887807
:10463000050707060000500070087888780508080C
:1046400006000020502070087888780605050600CE
:104650000078147C907C0507070600FE708880882F
:104660007020400508080600004020007088F8808F
:10467000700508080600001020007088F88070059A
:1046800008080600002050007088F88070050707B1
:1046900006000050007088F88070030808060100CA
:1046A000804000C0404040E0030808060100408010
:1046B00000C0404040E003080806010040A000C0E0
:1046C000404040E0060A0A0600FEA4A800FC8480E0
:1046D000808084FC060A0A0600FE549400FC8404D0
:1046E000040484FC050808060000285000B0C888AF
:1046F00088880508080600004020007088888870B7
:10470000040A0A0602FE30408090909090909090AB
:10471000040A0A0600FEC02010909090909090909D
:10472000060707060001448C8C8480403C0607077E
:1047300006000188C4C4840408F0050505060001CC
:104740002000F8002005080806000040F0C888880E
:10475000987810050808060000E0F888888888889E
:10476000F80505050600012030F830200508080688
:1047700000002070F820202020E00509090600FF35
:104780002070A8A8B8888850200509090600FFE015
:1047900080C0B0A8A83028280509090600FFF8A89D
:1047A0008888888888A8F8050A0A0600FE205050E4
:1047B000505088A8A88870534420436172642072C6
:1047C000696D6F73736100534420436172642069A3
:1047D0006E736572697461002200656E717565693A
:1047E0006E672022003E002C002C0057506F733A59
:1047F000002C002C002C007C4D506F733A003C497B
:10480000646C6500436F6E74726173740052656905
:104810006E766961746F3A0033E212E211241FBEB2
:10482000CFEFD1E2DEBFCDBF00E00CBF14E0A0E0CF
:10483000B2E0E6EFFCED01E00BBF02C007900D9285
:10484000A030B107D9F724E1A0E0B4E001C01D9287
:10485000A232B207E1F714E2CDE0D4E200E006C0F4
:1048600021970109802FFE010E9498EDCC30D107DD
:1048700080E00807A9F70E9468D90C946AEE0C94AE
:1048800000003F924F925F926F927F928F929F9221
:10489000AF92BF92CF92DF92EF92FF920F931F934E
:1048A000CF93DF93CDB7DEB7ED970FB6F894DEBFA9
:1048B0000FBECDBF87E40E9471D3D82E882309F4A0
:1048C00099C10E9497D30E943EEB6430710509F4B0
:1048D0009EC09CF46130710509F460C024F4672B1C
:1048E00029F10C9452396230710509F465C06330C6
:1048F000710509F475C00C9452396A35710509F4D3
:104900002CC154F46C31710509F4C5C06F317105C7
:1049100009F4C5C00C9452396B35710509F421C1F5
:104920006C35710509F422C10C9452398091310221
:1049300090913202892B91F1C0900102D090020235
:10494000E0900302F090040200915104109152048F
:104950000E9447770E9437AE0E9472B680E090E8CE
:10496000ABEBB4E48093010290930202A0930302A4
:10497000B093040210925204109251040E941CB58C
:104980000E9437AEC0920102D0920202E09203026E
:10499000F092040210935204009351048091600439
:1049A00081110AC08AE50E9471D381110E9437AE3D
:1049B0000E9472B60C94FD3880916004811110C081
:1049C0008091310290913202892B31F08AE50E9468
:1049D00071D381110E9437AE0E94FCB681E013C0F2
:1049E00080916004811113C0809131029091320254
:1049F000892B31F08AE50E9471D381110E9437AE74
:104A00000E94FCB680E00E9411B20C94FC3987E34E
:104A100096E00E94B46980E50E9471D3882339F042
:104A20000E9497D30E9443EB6B017C0103C0C12C11
:104A3000D12C760183E50E9471D3882361F00E9416
:104A400097D320E030E04AE754E40E94D4E20E9489
:104A500043EB6B017C010E9437AE0E943166C60EAB
:104A6000D71EE81EF91E0E9431666093800E709377
:104A7000810E8093820E9093830E0E9431666C1596
:104A80007D058E059F0510F00C9452390E9482B16D
:104A90000E948CCEF2CF0E94A0D30C945239809108
:104AA000310290913202892B11F40C9452390E94F8
:104AB0004777C0900102D0900202E0900302F0908C
:104AC00004020E9437AE8091110790911207A091C5
:104AD0001307B09114078093840E9093850EA093D2
:104AE000860EB093870E8091150790911607A091BE
:104AF0001707B09118078093880E9093890EA093A2
:104B00008A0EB0938B0E8091190790911A07A0918D
:104B10001B07B0911C0780938C0E90938D0EA09371
:104B20008E0EB0938F0E80E090E8ABEBB4E48093F0
:104B3000010290930202A0930302B09304020E9428
:104B40001CB50E9437AEC0920102D0920202E092E0
:104B50000302F09204020C94FC39109267040C9446
:104B6000523981E0809367040C94523980E00E94AE
:104B700071D3811102C00E9437AEE4E8AE2EE2E0AC
:104B8000BE2EF4E0EF2EF1E1FF2EADE1CA2EA7E03C
:104B9000DA2E10E0F50181915F010E9471D3882324
:104BA000F1F0133051F40E9497D3F70160837183C1
:104BB000828393830E94B18212C00E9497D39B018B
:104BC000AC01F60160817181828193810E94FAE9D2
:104BD000F70160837183828393830E9429D61F5FCC
:104BE000F4E0EF0EF11C24E0C20ED11C143091F65B
:104BF0000C9452398DE40E9471D3882311F40C94E3
:104C0000AF380E9497D30E943EEB6435710509F4DA
:104C100059C70CF088C06A31710509F4E0C3B4F5D6
:104C20006131710509F43CC3CCF46330710509F4BA
:104C300045C134F46230710508F4DDC20C94523978
:104C40006A30710509F49EC16B30710509F4BBC16E
:104C50006530710511F00C94523966C166317105E9
:104C600009F483C364F46431710509F42AC30CF0B8
:104C700078C36231710509F425C70C945239683143
:104C8000710509F48FC30CF476C39FC362327105BA
:104C900009F4DEC1B4F46E31710509F435C454F47D
:104CA0006B31710509F4A9C36C31710509F4F9C3BD
:104CB0000C9452396032710509F49EC50CF43DC65E
:104CC000A2C16035710509F4E7C664F46432710568
:104CD00009F408C20CF4E1C16A32710509F48EC608
:104CE0000C9452396235710509F4E3C60CF0E5C63F
:104CF0000E9437AE129A0E9442AE10928D06109218
:104D00008C0668EE73E080E090E00E94F965269AD8
:104D10002E9A1092070289E795E00E94B4690E94DA
:104D20008CCE0C9452396E3C710511F40C94E03029
:104D30000CF068C06537710509F497C78CF56A36C1
:104D4000710509F479C6CCF46535710509F4F1C62D
:104D50006C35710511F00C94523954E8852E52E0EF
:104D6000952E08E311E161E3A62E64E0B62E85E3FB
:104D700097E09DAF8CAF312C59C76237710509F4AC
:104D800089C76337710509F461C76B36710511F086
:104D90000C94523910928D0610928C060C94523954
:104DA000693C710511F40C9425309CF46837710549
:104DB00011F40C94282F6937710511F40C942C2FE1
:104DC0006737710511F00C945239E0E5F3E00C946B
:104DD000372F6C3C710511F40C945E3014F00C9478
:104DE00080306B3C710511F00C94523994E8E92E37
:104DF00092E0F92E01E314E021E4C22E24E0D22E49
:104E00000C944F30643F31E0730711F40C94FD3380
:104E100054F56A3F710511F40C94C5338CF46D3D63
:104E2000710511F40C941031623E710511F40C946B
:104E300021316C3D710511F00C9452390C94FF3006
:104E40006E3291E0790711F40C94F1336039E1E0AE
:104E50007E0711F40C94FA336C32714011F00C940B
:104E600052390C943531683522E0720711F40C94F4
:104E70006C369CF4663F81E0780711F40C9403349F
:104E800014F40C940034673F714011F00C945239C3
:104E90000CEB1CE1F8010C940D34603AF3E07F0751
:104EA00009F415C5673E23E0720711F40C94A0388D
:104EB0006438734011F00C94523939C10E9437AEF6
:104EC0008091310290913202029711F00C94523984
:104ED00083E50E9471D3882341F00E9497D30E94FA
:104EE0003EEB709352046093510481E08093500430
:104EF000609151047091520486E00E940D65E3EDCB
:104F0000F2E08191882339F09091C00095FFFCCFA9
:104F10008093C600F6CF8091C00085FFFCCF8AE069
:104F20008093C6000C9452390E9437AE80913102B2
:104F300090913202029711F00C94523983E50E944D
:104F400071D3882341F00E9497D30E943EEB709367
:104F50005204609351040E944777E0EEF2E08191A1
:104F6000882339F09091C00095FFFCCF8093C60054
:104F7000F6CF8091C00085FFFCCF8AE08093C60009
:104F80000C9452398091310290913202029711F0C3
:104F90000C94523981E0809353042C9AE0EFF2E0B4
:104FA0008191882339F09091C00095FFFCCF8093C8
:104FB000C600F6CF8091C00085FFFCCF8AE08093C9
:104FC000C6000C94523980913102909132020297BE
:104FD00011F00C945239109253042C98E1E0F3E054
:104FE0008191882339F09091C00095FFFCCF809388
:104FF000C600F6CF8091C00085FFFCCF8AE0809389
:10500000C6000C945239809131029091320202977D
:1050100011F00C9452399FB7F8948091020180648A
:10502000809302019FBFEEE0F3E08191882339F085
:105030009091C00095FFFCCF8093C600F6CF809181
:10504000C00085FFFCCF8AE08093C6000C945239E3
:105050008091310290913202029711F00C945239F2
:105060009FB7F894809102018F7B809302019FBFCC
:10507000E1E2F3E08191882339F09091C00095FF3F
:10508000FCCF8093C600F6CF8091C00085FFFCCF97
:105090008AE08093C6000C9452398091310290913D
:1050A0003202029711F00C9452399FB7F894809114
:1050B00002018062809302019FBFE7E3F3E08191E8
:1050C000882339F09091C00095FFFCCF8093C600F3
:1050D000F6CF8091C00085FFFCCF8AE08093C600A8
:1050E0000C9452398091310290913202029711F062
:1050F0000C9452399FB7F894809102018F7D809370
:1051000002019FBFE2E4F3E08191882339F090919E
:10511000C00095FFFCCF8093C600F6CF8091C00001
:1051200085FFFCCF8AE08093C6000C94523983E55A
:105130000E9471D38823E9F00E9497D36B017C0110
:1051400020E030E0A9010E9425EC87FD12C020E09C
:1051500030E040E450E4C701B6010E9484E687FFD6
:1051600008C0C701B6010E943EEB70933202609303
:1051700031028091310290913202892B69F4EFE182
:10518000F6E08491882341F09091C00095FFFCCF18
:105190008093C6003196F5CF809131029091320212
:1051A000019769F4E0E1F6E08491882341F0909161
:1051B000C00095FFFCCF8093C6003196F5CF80915B
:1051C000310290913202029769F4E8EFF5E08491A0
:1051D000882341F09091C00095FFFCCF8093C600DA
:1051E0003196F5CF8091C00085FFFCCF8AE0809397
:1051F000C6000C94523986EE95E00E94B46980E5B1
:105200000E9471D3882339F00E9497D30E9443EB08
:105210006B017C0103C0C12CD12C760183E50E9477
:1052200071D3882361F00E9497D320E030E04AE7F1
:1052300054E40E94D4E20E9443EB6B017C010E9483
:1052400037AE0E9431666093800E7093810E80931A
:10525000820E9093830EC114D104E104F104B1F0E5
:105260000E943166C60ED71EE81EF91E0E943166E6
:105270006C157D058E059F0510F00C9455390E9424
:10528000046981110C9455390C945A390E940469AF
:1052900081110C9455390E9482B10E948CCEF6CFB8
:1052A00084EC95E00E94B4695F988A989FB7F8945F
:1052B000809108018E7F809308019FBF12980C9403
:1052C0005239E2EBF5E08491882341F09091C000DF
:1052D00095FFFCCF8093C6003196F5CF8091C0003A
:1052E00085FFFCCF8AE08093C60010920F141092C5
:1052F0000E1489EB91E10E9433AF8BE1E9EBF1E110
:10530000DE01159601900D928A95E1F78091B71113
:105310009091B8119C838B838EEA92E09A83898363
:10532000BE016F5F7F4F82E893E00E94D886CE0176
:1053300001960E9444B1E2EAF5E08491882341F0AD
:105340009091C00095FFFCCF8093C6003196F5CFB9
:105350008091C00085FFFCCF8AE08093C6000C944A
:1053600052390E94D4C10C94523910928811109273
:1053700089110C94523900916504109166040C5FF8
:105380001F4F6AE270E0C8010E943BEE009719F0DF
:10539000FC013197108241E061E0C8010E94BE83A8
:1053A0000C94523980918911882319F081E08093FF
:1053B00088110E9431666093580470935904809359
:1053C0005A0490935B040C9452398091881188237D
:1053D00011F40C945239109288110C945239809126
:1053E0008911882311F40C94523983E50E9471D3FA
:1053F00081110C9460390C94523980918911882361
:1054000009F439C0EDE1F2E08491882341F09091F4
:10541000C00095FFFCCF8093C6003196F5CF609118
:10542000091470910A1480910B1490910C144AE0A5
:105430000E942EC4EBE1F2E08491882341F0909128
:10544000C00095FFFCCF8093C6003196F5CF6091E8
:1054500001147091021480910314909104144AE095
:105460000E942EC48091C00085FFFCCF8AE080930B
:10547000C6000C945239EDE3F2E08491882341F0A8
:105480009091C00095FFFCCF8093C6003196F5CF78
:105490008091C00085FFFCCF8AE08093C6000C9409
:1054A000523980916504909166046AE270E0049636
:1054B0000E943BEE8C01892BE1F020918306309114
:1054C000840640E6429FC001439F900D11246EE484
:1054D00070E08D5F9A4F0E943BEE60E270E00E94A8
:1054E0003BEE01969093660480936504F801319732
:1054F0001082809165049091660441E060E004961A
:105500000E94BE830C94523980918911882311F432
:105510000C94523984E593E10E94F77B84E593E192
:105520000E94297C10928611109287118091650447
:10553000909166046AE270E004960E943BEE8C0152
:10554000892BE1F0209183063091840640E6429F4A
:10555000C001439F900D11246EE470E08D5F9A4F5F
:105560000E943BEE60E270E00E943BEE0196909359
:10557000660480936504F801319710828091891147
:10558000882311F40C94523900916504109166043B
:10559000580184E0A80EB11C84E593E10E94297CA7
:1055A000109288111D8218861C821B828EEA92E05E
:1055B0009A83898385EB91E19093D5118093D411DF
:1055C000F80184818F3209F090C06FE270E0C5016C
:1055D0000E943BEE8C010F5F1F4F7AE0C72E9E01A9
:1055E0002F5F3F4F49010115110509F484C06FE297
:1055F00070E0C8010E943BEE7C01009709F47CC07A
:105600000817190708F078C03C01601A710AA30155
:10561000B801CE0180960E945BEEE0E2F0E0EC0F74
:10562000FD1FE60DF71D10828E01005E1F4FF80171
:105630008191882339F09091C00095FFFCCF809331
:10564000C600F6CF8091C00085FFFCCFC092C60097
:105650006091D4117091D5116115710511F06C5FD5
:105660007F4F21E0AE01405E5F4FCE0105960E9464
:105670009881811132C0E2E8F2E08491882371F0D0
:105680009091C00095FFFCCF8093C6003196F5CF76
:105690009091C00095FFFCCF8093C600F8018191E6
:1056A0008F018111F5CFE0E8F2E08491882341F089
:1056B0009091C00095FFFCCF8093C6003196F5CF46
:1056C0008091C00085FFFCCF8AE08093C600CE01A8
:1056D00001960E9444B10C9452399092D511809257
:1056E000D41187010F5F1F4F7ECF86ED91E190931C
:1056F000D5118093D41185016091D4117091D51189
:105700006115710511F06C5F7F4F18A21BA222E09A
:10571000A801CE0180960E9498818823A1F0CE0135
:1057200080960E9400C6882371F061E0CE018096C9
:105730000E94DB7B009739F025EEFC0120831BA241
:105740000E944F9AD82ECE0180960E9423D6DD204B
:1057500009F1E2E7F2E08491882341F09091C000E2
:1057600095FFFCCF8093C6003196F5CFF80181916B
:10577000882339F09091C00095FFFCCF8093C6003C
:10578000F6CF1092091410920A1410920B14109272
:105790000C142CC0EAE5F2E08491882341F090914A
:1057A000C00095FFFCCF8093C6003196F5CFF8017D
:1057B0008191882339F09091C00095FFFCCF8093B0
:1057C000C600F6CFE8E5F2E08491882341F090919D
:1057D000C00095FFFCCF8093C6003196F5CF809135
:1057E000C00085FFFCCF8AE08093C600CE01019601
:1057F0000E9444B10C9452398091881181110E9409
:1058000037AE00916504109166040C5F1F4F6AE289
:1058100070E0C8010E943BEE7C0161E270E0C801CB
:105820000E943BEE009719F08C010F5F1F4FE114AF
:10583000F10419F0F7013197108280E50E9471D3CD
:10584000F82E80916504909166040817190708F4F2
:10585000F12C80918911882311F40C94523941E084
:105860004F2561E0C8010E94BE8383E50E9471D389
:105870008823B9F0809165049091660480179107A0
:1058800080F40E948CD3AB01BC0140930914509367
:105890000A1460930B1470930C1484E593E10E9436
:1058A000DF7A80918911882319F081E08093881133
:1058B000F1100C9452390E94316660935804709331
:1058C000590480935A0490935B040C94523980914C
:1058D0006504909166046AE270E005960E943BEED2
:1058E0008C01892BE1F0209183063091840640E6FB
:1058F000429FC001439F900D11246EE470E08D5FC4
:105900009A4F0E943BEE60E270E00E943BEE0196EF
:105910009093660480936504F8013197108280911A
:1059200065049091660421E02093871141E060E0D6
:1059300005960E94BE830C9452390E9431660091F4
:1059400058041091590420915A0430915B046B0162
:105950007C01C01AD10AE20AF30AC701B60128EE97
:1059600033E040E050E00E94BEE9CA01B9012CE3F7
:1059700030E040E050E00E94BEE97F936F93C701A2
:10598000B60120E63AEE40E050E00E94BEE93F93C7
:105990002F9383E995E09F938F938E010F5F1F4FA5
:1059A0001F930F930E9456E6E1E0F8E084910FB652
:1059B000F894DEBF0FBECDBF882349F09091C000A0
:1059C00095FFFCCF8093C60031968491F5CFF80106
:1059D0008191882339F09091C00095FFFCCF80938E
:1059E000C600F6CF8091C00085FFFCCF8AE080938F
:1059F000C600C8010E947DCE0C94523983E50E94F6
:105A000071D3882311F40C9452390E9497D36B01FF
:105A10007C0180E50E9471D3882311F40C945239E3
:105A2000C701B6010E943EEB6F3F710509F010F40B
:105A30000C9471390C94523983E50E9471D38823F8
:105A400019F10E9497D320E030E0A9010E9484E67A
:105A500087FD0FC00E9497D320E030E04FE753E46A
:105A60000E9425EC181644F00E9497D30E943EEB4A
:105A700005C060E070E002C06FEF70E070938D06CB
:105A800060938C060C9452398FEF90E090938D06C2
:105A900080938C060C945239269A2E9881E080933C
:105AA000070285E895E00E94B4690E948CCE0C94B0
:105AB000523910927B0E0C94523981E080937B0E08
:105AC0000C94523983E50E9471D38823A1F00E947F
:105AD00097D320E030E04AE754E40E94D4E20E94E9
